{"contracts/Messager.sol":{"Messager":{"abi":[{"inputs":[],"stateMutability":"nonpayable","type":"constructor"},{"inputs":[],"name":"ECDSAInvalidSignature","type":"error"},{"inputs":[{"internalType":"uint256","name":"length","type":"uint256"}],"name":"ECDSAInvalidSignatureLength","type":"error"},{"inputs":[{"internalType":"bytes32","name":"s","type":"bytes32"}],"name":"ECDSAInvalidSignatureS","type":"error"},{"inputs":[],"name":"InvalidShortString","type":"error"},{"inputs":[{"internalType":"string","name":"str","type":"string"}],"name":"StringTooLong","type":"error"},{"anonymous":false,"inputs":[],"name":"EIP712DomainChanged","type":"event"},{"anonymous":false,"inputs":[{"indexed":false,"internalType":"string","name":"text","type":"string"},{"indexed":false,"internalType":"address","name":"sender","type":"address"}],"name":"MessageChanged","type":"event"},{"inputs":[],"name":"eip712Domain","outputs":[{"internalType":"bytes1","name":"fields","type":"bytes1"},{"internalType":"string","name":"name","type":"string"},{"internalType":"string","name":"version","type":"string"},{"internalType":"uint256","name":"chainId","type":"uint256"},{"internalType":"address","name":"verifyingContract","type":"address"},{"internalType":"bytes32","name":"salt","type":"bytes32"},{"internalType":"uint256[]","name":"extensions","type":"uint256[]"}],"stateMutability":"view","type":"function"},{"inputs":[{"components":[{"internalType":"string","name":"text","type":"string"},{"internalType":"uint256","name":"deadline","type":"uint256"}],"internalType":"struct Messager.MessageStruct","name":"messageStruct","type":"tuple"},{"internalType":"address","name":"sender","type":"address"},{"internalType":"uint8","name":"v","type":"uint8"},{"internalType":"bytes32","name":"r","type":"bytes32"},{"internalType":"bytes32","name":"s","type":"bytes32"}],"name":"message","outputs":[],"stateMutability":"nonpayable","type":"function"},{"inputs":[],"name":"messageSender","outputs":[{"internalType":"address","name":"","type":"address"}],"stateMutability":"view","type":"function"},{"inputs":[],"name":"textMessage","outputs":[{"internalType":"string","name":"","type":"string"}],"stateMutability":"view","type":"function"},{"inputs":[{"components":[{"internalType":"string","name":"text","type":"string"},{"internalType":"uint256","name":"deadline","type":"uint256"}],"internalType":"struct Messager.MessageStruct","name":"messageStruct","type":"tuple"},{"internalType":"address","name":"sender","type":"address"},{"internalType":"uint8","name":"v","type":"uint8"},{"internalType":"bytes32","name":"r","type":"bytes32"},{"internalType":"bytes32","name":"s","type":"bytes32"}],"name":"verifyMessage","outputs":[{"internalType":"bool","name":"","type":"bool"}],"stateMutability":"view","type":"function"}],"evm":{"bytecode":{"linkReferences":{},"object":"6101606040526040518060400160405280600c81526020017f48656c6c6f20576f726c64210000000000000000000000000000000000000000815250600290816200004b919062000679565b503480156200005957600080fd5b506040518060400160405280600881526020017f4d657373616765720000000000000000000000000000000000000000000000008152506040518060400160405280600181526020017f3100000000000000000000000000000000000000000000000000000000000000815250620000dc600083620001c360201b90919060201c565b6101208181525050620000fa600182620001c360201b90919060201c565b6101408181525050818051906020012060e08181525050808051906020012061010081815250504660a08181525050620001396200021b60201b60201c565b608081815250503073ffffffffffffffffffffffffffffffffffffffff1660c08173ffffffffffffffffffffffffffffffffffffffff16815250505050620001bd6040518060400160405280600c81526020017f436861696e2049443a2025730000000000000000000000000000000000000000815250466200027860201b60201c565b620009e6565b6000602083511015620001e957620001e1836200031e60201b60201c565b905062000215565b82620001fb836200038b60201b60201c565b60000190816200020c919062000679565b5060ff60001b90505b92915050565b60007f8b73c3c69bb8fe3d512ecc4cf759cc79239f7b179b0ffacaa9a75d522b39400f60e0516101005146306040516020016200025d959493929190620007d1565b60405160208183030381529060405280519060200120905090565b6200031a828260405160240162000291929190620008bd565b6040516020818303038152906040527fb60e72cc000000000000000000000000000000000000000000000000000000007bffffffffffffffffffffffffffffffffffffffffffffffffffffffff19166020820180517bffffffffffffffffffffffffffffffffffffffffffffffffffffffff83818316178352505050506200039560201b60201c565b5050565b600080829050601f815111156200036e57826040517f305a27a9000000000000000000000000000000000000000000000000000000008152600401620003659190620008f1565b60405180910390fd5b8051816200037c9062000947565b60001c1760001b915050919050565b6000819050919050565b620003bb81620003b6620003be60201b620004a617620003df60201b60201c565b60201c565b50565b60006a636f6e736f6c652e6c6f679050600080835160208501845afa505050565b620003f360201b62000c0517819050919050565b620003fd620009b7565b565b600081519050919050565b7f4e487b7100000000000000000000000000000000000000000000000000000000600052604160045260246000fd5b7f4e487b7100000000000000000000000000000000000000000000000000000000600052602260045260246000fd5b600060028204905060018216806200048157607f821691505b60208210810362000497576200049662000439565b5b50919050565b60008190508160005260206000209050919050565b60006020601f8301049050919050565b600082821b905092915050565b600060088302620005017fffffffffffffffffffffffffffffffffffffffffffffffffffffffffffffffff82620004c2565b6200050d8683620004c2565b95508019841693508086168417925050509392505050565b6000819050919050565b6000819050919050565b60006200055a620005546200054e8462000525565b6200052f565b62000525565b9050919050565b6000819050919050565b620005768362000539565b6200058e620005858262000561565b848454620004cf565b825550505050565b600090565b620005a562000596565b620005b28184846200056b565b505050565b5b81811015620005da57620005ce6000826200059b565b600181019050620005b8565b5050565b601f8211156200062957620005f3816200049d565b620005fe84620004b2565b810160208510156200060e578190505b620006266200061d85620004b2565b830182620005b7565b50505b505050565b600082821c905092915050565b60006200064e600019846008026200062e565b1980831691505092915050565b60006200066983836200063b565b9150826002028217905092915050565b6200068482620003ff565b67ffffffffffffffff811115620006a0576200069f6200040a565b5b620006ac825462000468565b620006b9828285620005de565b600060209050601f831160018114620006f15760008415620006dc578287015190505b620006e885826200065b565b86555062000758565b601f19841662000701866200049d565b60005b828110156200072b5784890151825560018201915060208501945060208101905062000704565b868310156200074b578489015162000747601f8916826200063b565b8355505b6001600288020188555050505b505050505050565b6000819050919050565b620007758162000760565b82525050565b620007868162000525565b82525050565b600073ffffffffffffffffffffffffffffffffffffffff82169050919050565b6000620007b9826200078c565b9050919050565b620007cb81620007ac565b82525050565b600060a082019050620007e860008301886200076a565b620007f760208301876200076a565b6200080660408301866200076a565b6200081560608301856200077b565b620008246080830184620007c0565b9695505050505050565b600082825260208201905092915050565b60005b838110156200085f57808201518184015260208101905062000842565b60008484015250505050565b6000601f19601f8301169050919050565b60006200088982620003ff565b6200089581856200082e565b9350620008a78185602086016200083f565b620008b2816200086b565b840191505092915050565b60006040820190508181036000830152620008d981856200087c565b9050620008ea60208301846200077b565b9392505050565b600060208201905081810360008301526200090d81846200087c565b905092915050565b600081519050919050565b6000819050602082019050919050565b60006200093e825162000760565b80915050919050565b6000620009548262000915565b82620009608462000920565b90506200096d8162000930565b92506020821015620009b057620009ab7fffffffffffffffffffffffffffffffffffffffffffffffffffffffffffffffff83602003600802620004c2565b831692505b5050919050565b7f4e487b7100000000000000000000000000000000000000000000000000000000600052605160045260246000fd5b60805160a05160c05160e05161010051610120516101405161190962000a41600039600061050b015260006104d001526000610b5a01526000610b390152600061073a01526000610790015260006107b901526119096000f3fe608060405234801561001057600080fd5b50600436106100575760003560e01c80631c50eed51461005c57806384b0196e1461007a578063887c00361461009e578063d67bdd25146100ba578063dd26fe92146100d8575b600080fd5b610064610108565b6040516100719190610c9f565b60405180910390f35b610082610196565b6040516100959796959493929190610e2d565b60405180910390f35b6100b860048036038101906100b39190610f7a565b610240565b005b6100c2610397565b6040516100cf9190611011565b60405180910390f35b6100f260048036038101906100ed9190610f7a565b6103bd565b6040516100ff9190611047565b60405180910390f35b6002805461011590611091565b80601f016020809104026020016040519081016040528092919081815260200182805461014190611091565b801561018e5780601f106101635761010080835404028352916020019161018e565b820191906000526020600020905b81548152906001019060200180831161017157829003601f168201915b505050505081565b6000606080600080600060606101aa6104c7565b6101b2610502565b46306000801b600067ffffffffffffffff8111156101d3576101d26110c2565b5b6040519080825280602002602001820160405280156102015781602001602082028036833780820191505090505b507f0f00000000000000000000000000000000000000000000000000000000000000959493929190965096509650965096509650965090919293949596565b61024d85858585856103bd565b61028c576040517f08c379a00000000000000000000000000000000000000000000000000000000081526004016102839061113d565b60405180910390fd5b84602001354211156102d3576040517f08c379a00000000000000000000000000000000000000000000000000000000081526004016102ca906111a9565b60405180910390fd5b8480600001906102e391906111d8565b600291826102f29291906113f2565b5033600360006101000a81548173ffffffffffffffffffffffffffffffffffffffff021916908373ffffffffffffffffffffffffffffffffffffffff1602179055507ffe805c34be9e63a416b9aba99c6c62782dafb9620895945675bbbe5131aeb1a16002600360009054906101000a900473ffffffffffffffffffffffffffffffffffffffff16604051610388929190611546565b60405180910390a15050505050565b600360009054906101000a900473ffffffffffffffffffffffffffffffffffffffff1681565b6000806103da6103d5886103d09061171e565b61053d565b6105a0565b905060006103ea828787876105ba565b905061042b6040518060400160405280601581526020017f5265636f766572656420616464726573733a2025730000000000000000000000815250826105ea565b61046a6040518060400160405280601281526020017f53656e64657220616464726573733a2025730000000000000000000000000000815250886105ea565b8673ffffffffffffffffffffffffffffffffffffffff168173ffffffffffffffffffffffffffffffffffffffff16149250505095945050505050565b60006a636f6e736f6c652e6c6f679050600080835160208501845afa505050565b60606104fd60007f000000000000000000000000000000000000000000000000000000000000000061068690919063ffffffff16565b905090565b606061053860017f000000000000000000000000000000000000000000000000000000000000000061068690919063ffffffff16565b905090565b60007fff68792d44a8d6b8489c8bf05a98afb27ffcee59ff7fe51e62e896e3ab56e7ee826000015180519060200120836020015160405160200161058393929190611731565b604051602081830303815290604052805190602001209050919050565b60006105b36105ad610736565b836107ed565b9050919050565b6000806000806105cc8888888861082e565b9250925092506105dc8282610922565b829350505050949350505050565b6106828282604051602401610600929190611768565b6040516020818303038152906040527f319af333000000000000000000000000000000000000000000000000000000007bffffffffffffffffffffffffffffffffffffffffffffffffffffffff19166020820180517bffffffffffffffffffffffffffffffffffffffffffffffffffffffff8381831617835250505050610a86565b5050565b606060ff60001b83146106a35761069c83610aa0565b9050610730565b8180546106af90611091565b80601f01602080910402602001604051908101604052809291908181526020018280546106db90611091565b80156107285780601f106106fd57610100808354040283529160200191610728565b820191906000526020600020905b81548152906001019060200180831161070b57829003601f168201915b505050505090505b92915050565b60007f000000000000000000000000000000000000000000000000000000000000000073ffffffffffffffffffffffffffffffffffffffff163073ffffffffffffffffffffffffffffffffffffffff161480156107b257507f000000000000000000000000000000000000000000000000000000000000000046145b156107df577f000000000000000000000000000000000000000000000000000000000000000090506107ea565b6107e7610b14565b90505b90565b60006040517f190100000000000000000000000000000000000000000000000000000000000081528360028201528260228201526042812091505092915050565b60008060007f7fffffffffffffffffffffffffffffff5d576e7357a4501ddfe92f46681b20a08460001c111561086e576000600385925092509250610918565b60006001888888886040516000815260200160405260405161089394939291906117a7565b6020604051602081039080840390855afa1580156108b5573d6000803e3d6000fd5b505050602060405103519050600073ffffffffffffffffffffffffffffffffffffffff168173ffffffffffffffffffffffffffffffffffffffff160361090957600060016000801b93509350935050610918565b8060008060001b935093509350505b9450945094915050565b60006003811115610936576109356117ec565b5b826003811115610949576109486117ec565b5b0315610a825760016003811115610963576109626117ec565b5b826003811115610976576109756117ec565b5b036109ad576040517ff645eedf00000000000000000000000000000000000000000000000000000000815260040160405180910390fd5b600260038111156109c1576109c06117ec565b5b8260038111156109d4576109d36117ec565b5b03610a19578060001c6040517ffce698f7000000000000000000000000000000000000000000000000000000008152600401610a10919061181b565b60405180910390fd5b600380811115610a2c57610a2b6117ec565b5b826003811115610a3f57610a3e6117ec565b5b03610a8157806040517fd78bce0c000000000000000000000000000000000000000000000000000000008152600401610a789190611836565b60405180910390fd5b5b5050565b610a9d81610a956104a6610baa565b63ffffffff16565b50565b60606000610aad83610bb5565b90506000602067ffffffffffffffff811115610acc57610acb6110c2565b5b6040519080825280601f01601f191660200182016040528015610afe5781602001600182028036833780820191505090505b5090508181528360208201528092505050919050565b60007f8b73c3c69bb8fe3d512ecc4cf759cc79239f7b179b0ffacaa9a75d522b39400f7f00000000000000000000000000000000000000000000000000000000000000007f00000000000000000000000000000000000000000000000000000000000000004630604051602001610b8f959493929190611851565b60405160208183030381529060405280519060200120905090565b610c05819050919050565b60008060ff8360001c169050601f811115610bfc576040517fb3512b0c00000000000000000000000000000000000000000000000000000000815260040160405180910390fd5b80915050919050565b610c0d6118a4565b565b600081519050919050565b600082825260208201905092915050565b60005b83811015610c49578082015181840152602081019050610c2e565b60008484015250505050565b6000601f19601f8301169050919050565b6000610c7182610c0f565b610c7b8185610c1a565b9350610c8b818560208601610c2b565b610c9481610c55565b840191505092915050565b60006020820190508181036000830152610cb98184610c66565b905092915050565b60007fff0000000000000000000000000000000000000000000000000000000000000082169050919050565b610cf681610cc1565b82525050565b6000819050919050565b610d0f81610cfc565b82525050565b600073ffffffffffffffffffffffffffffffffffffffff82169050919050565b6000610d4082610d15565b9050919050565b610d5081610d35565b82525050565b6000819050919050565b610d6981610d56565b82525050565b600081519050919050565b600082825260208201905092915050565b6000819050602082019050919050565b610da481610cfc565b82525050565b6000610db68383610d9b565b60208301905092915050565b6000602082019050919050565b6000610dda82610d6f565b610de48185610d7a565b9350610def83610d8b565b8060005b83811015610e20578151610e078882610daa565b9750610e1283610dc2565b925050600181019050610df3565b5085935050505092915050565b600060e082019050610e42600083018a610ced565b8181036020830152610e548189610c66565b90508181036040830152610e688188610c66565b9050610e776060830187610d06565b610e846080830186610d47565b610e9160a0830185610d60565b81810360c0830152610ea38184610dcf565b905098975050505050505050565b6000604051905090565b600080fd5b600080fd5b600080fd5b600060408284031215610ee057610edf610ec5565b5b81905092915050565b610ef281610d35565b8114610efd57600080fd5b50565b600081359050610f0f81610ee9565b92915050565b600060ff82169050919050565b610f2b81610f15565b8114610f3657600080fd5b50565b600081359050610f4881610f22565b92915050565b610f5781610d56565b8114610f6257600080fd5b50565b600081359050610f7481610f4e565b92915050565b600080600080600060a08688031215610f9657610f95610ebb565b5b600086013567ffffffffffffffff811115610fb457610fb3610ec0565b5b610fc088828901610eca565b9550506020610fd188828901610f00565b9450506040610fe288828901610f39565b9350506060610ff388828901610f65565b925050608061100488828901610f65565b9150509295509295909350565b60006020820190506110266000830184610d47565b92915050565b60008115159050919050565b6110418161102c565b82525050565b600060208201905061105c6000830184611038565b92915050565b7f4e487b7100000000000000000000000000000000000000000000000000000000600052602260045260246000fd5b600060028204905060018216806110a957607f821691505b6020821081036110bc576110bb611062565b5b50919050565b7f4e487b7100000000000000000000000000000000000000000000000000000000600052604160045260246000fd5b7f494e56414c4944205349474e4154555245000000000000000000000000000000600082015250565b6000611127601183610c1a565b9150611132826110f1565b602082019050919050565b600060208201905081810360008301526111568161111a565b9050919050565b7f444541444c494e4520484153204245454e205245414348454400000000000000600082015250565b6000611193601983610c1a565b915061119e8261115d565b602082019050919050565b600060208201905081810360008301526111c281611186565b9050919050565b600080fd5b600080fd5b600080fd5b600080833560016020038436030381126111f5576111f46111c9565b5b80840192508235915067ffffffffffffffff821115611217576112166111ce565b5b602083019250600182023603831315611233576112326111d3565b5b509250929050565b600082905092915050565b60008190508160005260206000209050919050565b60006020601f8301049050919050565b600082821b905092915050565b6000600883026112a87fffffffffffffffffffffffffffffffffffffffffffffffffffffffffffffffff8261126b565b6112b2868361126b565b95508019841693508086168417925050509392505050565b6000819050919050565b60006112ef6112ea6112e584610cfc565b6112ca565b610cfc565b9050919050565b6000819050919050565b611309836112d4565b61131d611315826112f6565b848454611278565b825550505050565b600090565b611332611325565b61133d818484611300565b505050565b5b818110156113615761135660008261132a565b600181019050611343565b5050565b601f8211156113a65761137781611246565b6113808461125b565b8101602085101561138f578190505b6113a361139b8561125b565b830182611342565b50505b505050565b600082821c905092915050565b60006113c9600019846008026113ab565b1980831691505092915050565b60006113e283836113b8565b9150826002028217905092915050565b6113fc838361123b565b67ffffffffffffffff811115611415576114146110c2565b5b61141f8254611091565b61142a828285611365565b6000601f8311600181146114595760008415611447578287013590505b61145185826113d6565b8655506114b9565b601f19841661146786611246565b60005b8281101561148f5784890135825560018201915060208501945060208101905061146a565b868310156114ac57848901356114a8601f8916826113b8565b8355505b6001600288020188555050505b50505050505050565b600081546114cf81611091565b6114d98186610c1a565b945060018216600081146114f4576001811461150a5761153d565b60ff19831686528115156020028601935061153d565b61151385611246565b60005b8381101561153557815481890152600182019150602081019050611516565b808801955050505b50505092915050565b6000604082019050818103600083015261156081856114c2565b905061156f6020830184610d47565b9392505050565b600080fd5b61158482610c55565b810181811067ffffffffffffffff821117156115a3576115a26110c2565b5b80604052505050565b60006115b6610eb1565b90506115c2828261157b565b919050565b600080fd5b600080fd5b600080fd5b600067ffffffffffffffff8211156115f1576115f06110c2565b5b6115fa82610c55565b9050602081019050919050565b82818337600083830152505050565b6000611629611624846115d6565b6115ac565b905082815260208101848484011115611645576116446115d1565b5b611650848285611607565b509392505050565b600082601f83011261166d5761166c6115cc565b5b813561167d848260208601611616565b91505092915050565b61168f81610cfc565b811461169a57600080fd5b50565b6000813590506116ac81611686565b92915050565b6000604082840312156116c8576116c7611576565b5b6116d260406115ac565b9050600082013567ffffffffffffffff8111156116f2576116f16115c7565b5b6116fe84828501611658565b60008301525060206117128482850161169d565b60208301525092915050565b600061172a36836116b2565b9050919050565b60006060820190506117466000830186610d60565b6117536020830185610d60565b6117606040830184610d06565b949350505050565b600060408201905081810360008301526117828185610c66565b90506117916020830184610d47565b9392505050565b6117a181610f15565b82525050565b60006080820190506117bc6000830187610d60565b6117c96020830186611798565b6117d66040830185610d60565b6117e36060830184610d60565b95945050505050565b7f4e487b7100000000000000000000000000000000000000000000000000000000600052602160045260246000fd5b60006020820190506118306000830184610d06565b92915050565b600060208201905061184b6000830184610d60565b92915050565b600060a0820190506118666000830188610d60565b6118736020830187610d60565b6118806040830186610d60565b61188d6060830185610d06565b61189a6080830184610d47565b9695505050505050565b7f4e487b7100000000000000000000000000000000000000000000000000000000600052605160045260246000fdfea2646970667358221220d3da9b06f4e6a5d91d6a05fa7e6ed2dd5850a1afabf4546f83e09aa9513d7f4f64736f6c63430008180033","opcodes":"PUSH2 0x160 PUSH1 0x40 MSTORE PUSH1 0x40 MLOAD DUP1 PUSH1 0x40 ADD PUSH1 0x40 MSTORE DUP1 PUSH1 0xC DUP2 MSTORE PUSH1 0x20 ADD PUSH32 0x48656C6C6F20576F726C64210000000000000000000000000000000000000000 DUP2 MSTORE POP PUSH1 0x2 SWAP1 DUP2 PUSH3 0x4B SWAP2 SWAP1 PUSH3 0x679 JUMP JUMPDEST POP CALLVALUE DUP1 ISZERO PUSH3 0x59 JUMPI PUSH1 0x0 DUP1 REVERT JUMPDEST POP PUSH1 0x40 MLOAD DUP1 PUSH1 0x40 ADD PUSH1 0x40 MSTORE DUP1 PUSH1 0x8 DUP2 MSTORE PUSH1 0x20 ADD PUSH32 0x4D65737361676572000000000000000000000000000000000000000000000000 DUP2 MSTORE POP PUSH1 0x40 MLOAD DUP1 PUSH1 0x40 ADD PUSH1 0x40 MSTORE DUP1 PUSH1 0x1 DUP2 MSTORE PUSH1 0x20 ADD PUSH32 0x3100000000000000000000000000000000000000000000000000000000000000 DUP2 MSTORE POP PUSH3 0xDC PUSH1 0x0 DUP4 PUSH3 0x1C3 PUSH1 0x20 SHL SWAP1 SWAP2 SWAP1 PUSH1 0x20 SHR JUMP JUMPDEST PUSH2 0x120 DUP2 DUP2 MSTORE POP POP PUSH3 0xFA PUSH1 0x1 DUP3 PUSH3 0x1C3 PUSH1 0x20 SHL SWAP1 SWAP2 SWAP1 PUSH1 0x20 SHR JUMP JUMPDEST PUSH2 0x140 DUP2 DUP2 MSTORE POP POP DUP2 DUP1 MLOAD SWAP1 PUSH1 0x20 ADD KECCAK256 PUSH1 0xE0 DUP2 DUP2 MSTORE POP POP DUP1 DUP1 MLOAD SWAP1 PUSH1 0x20 ADD KECCAK256 PUSH2 0x100 DUP2 DUP2 MSTORE POP POP CHAINID PUSH1 0xA0 DUP2 DUP2 MSTORE POP POP PUSH3 0x139 PUSH3 0x21B PUSH1 0x20 SHL PUSH1 0x20 SHR JUMP JUMPDEST PUSH1 0x80 DUP2 DUP2 MSTORE POP POP ADDRESS PUSH20 0xFFFFFFFFFFFFFFFFFFFFFFFFFFFFFFFFFFFFFFFF AND PUSH1 0xC0 DUP2 PUSH20 0xFFFFFFFFFFFFFFFFFFFFFFFFFFFFFFFFFFFFFFFF AND DUP2 MSTORE POP POP POP POP PUSH3 0x1BD PUSH1 0x40 MLOAD DUP1 PUSH1 0x40 ADD PUSH1 0x40 MSTORE DUP1 PUSH1 0xC DUP2 MSTORE PUSH1 0x20 ADD PUSH32 0x436861696E2049443A2025730000000000000000000000000000000000000000 DUP2 MSTORE POP CHAINID PUSH3 0x278 PUSH1 0x20 SHL PUSH1 0x20 SHR JUMP JUMPDEST PUSH3 0x9E6 JUMP JUMPDEST PUSH1 0x0 PUSH1 0x20 DUP4 MLOAD LT ISZERO PUSH3 0x1E9 JUMPI PUSH3 0x1E1 DUP4 PUSH3 0x31E PUSH1 0x20 SHL PUSH1 0x20 SHR JUMP JUMPDEST SWAP1 POP PUSH3 0x215 JUMP JUMPDEST DUP3 PUSH3 0x1FB DUP4 PUSH3 0x38B PUSH1 0x20 SHL PUSH1 0x20 SHR JUMP JUMPDEST PUSH1 0x0 ADD SWAP1 DUP2 PUSH3 0x20C SWAP2 SWAP1 PUSH3 0x679 JUMP JUMPDEST POP PUSH1 0xFF PUSH1 0x0 SHL SWAP1 POP JUMPDEST SWAP3 SWAP2 POP POP JUMP JUMPDEST PUSH1 0x0 PUSH32 0x8B73C3C69BB8FE3D512ECC4CF759CC79239F7B179B0FFACAA9A75D522B39400F PUSH1 0xE0 MLOAD PUSH2 0x100 MLOAD CHAINID ADDRESS PUSH1 0x40 MLOAD PUSH1 0x20 ADD PUSH3 0x25D SWAP6 SWAP5 SWAP4 SWAP3 SWAP2 SWAP1 PUSH3 0x7D1 JUMP JUMPDEST PUSH1 0x40 MLOAD PUSH1 0x20 DUP2 DUP4 SUB SUB DUP2 MSTORE SWAP1 PUSH1 0x40 MSTORE DUP1 MLOAD SWAP1 PUSH1 0x20 ADD KECCAK256 SWAP1 POP SWAP1 JUMP JUMPDEST PUSH3 0x31A DUP3 DUP3 PUSH1 0x40 MLOAD PUSH1 0x24 ADD PUSH3 0x291 SWAP3 SWAP2 SWAP1 PUSH3 0x8BD JUMP JUMPDEST PUSH1 0x40 MLOAD PUSH1 0x20 DUP2 DUP4 SUB SUB DUP2 MSTORE SWAP1 PUSH1 0x40 MSTORE PUSH32 0xB60E72CC00000000000000000000000000000000000000000000000000000000 PUSH28 0xFFFFFFFFFFFFFFFFFFFFFFFFFFFFFFFFFFFFFFFFFFFFFFFFFFFFFFFF NOT AND PUSH1 0x20 DUP3 ADD DUP1 MLOAD PUSH28 0xFFFFFFFFFFFFFFFFFFFFFFFFFFFFFFFFFFFFFFFFFFFFFFFFFFFFFFFF DUP4 DUP2 DUP4 AND OR DUP4 MSTORE POP POP POP POP PUSH3 0x395 PUSH1 0x20 SHL PUSH1 0x20 SHR JUMP JUMPDEST POP POP JUMP JUMPDEST PUSH1 0x0 DUP1 DUP3 SWAP1 POP PUSH1 0x1F DUP2 MLOAD GT ISZERO PUSH3 0x36E JUMPI DUP3 PUSH1 0x40 MLOAD PUSH32 0x305A27A900000000000000000000000000000000000000000000000000000000 DUP2 MSTORE PUSH1 0x4 ADD PUSH3 0x365 SWAP2 SWAP1 PUSH3 0x8F1 JUMP JUMPDEST PUSH1 0x40 MLOAD DUP1 SWAP2 SUB SWAP1 REVERT JUMPDEST DUP1 MLOAD DUP2 PUSH3 0x37C SWAP1 PUSH3 0x947 JUMP JUMPDEST PUSH1 0x0 SHR OR PUSH1 0x0 SHL SWAP2 POP POP SWAP2 SWAP1 POP JUMP JUMPDEST PUSH1 0x0 DUP2 SWAP1 POP SWAP2 SWAP1 POP JUMP JUMPDEST PUSH3 0x3BB DUP2 PUSH3 0x3B6 PUSH3 0x3BE PUSH1 0x20 SHL PUSH3 0x4A6 OR PUSH3 0x3DF PUSH1 0x20 SHL PUSH1 0x20 SHR JUMP JUMPDEST PUSH1 0x20 SHR JUMP JUMPDEST POP JUMP JUMPDEST PUSH1 0x0 PUSH11 0x636F6E736F6C652E6C6F67 SWAP1 POP PUSH1 0x0 DUP1 DUP4 MLOAD PUSH1 0x20 DUP6 ADD DUP5 GAS STATICCALL POP POP POP JUMP JUMPDEST PUSH3 0x3F3 PUSH1 0x20 SHL PUSH3 0xC05 OR DUP2 SWAP1 POP SWAP2 SWAP1 POP JUMP JUMPDEST PUSH3 0x3FD PUSH3 0x9B7 JUMP JUMPDEST JUMP JUMPDEST PUSH1 0x0 DUP2 MLOAD SWAP1 POP SWAP2 SWAP1 POP JUMP JUMPDEST PUSH32 0x4E487B7100000000000000000000000000000000000000000000000000000000 PUSH1 0x0 MSTORE PUSH1 0x41 PUSH1 0x4 MSTORE PUSH1 0x24 PUSH1 0x0 REVERT JUMPDEST PUSH32 0x4E487B7100000000000000000000000000000000000000000000000000000000 PUSH1 0x0 MSTORE PUSH1 0x22 PUSH1 0x4 MSTORE PUSH1 0x24 PUSH1 0x0 REVERT JUMPDEST PUSH1 0x0 PUSH1 0x2 DUP3 DIV SWAP1 POP PUSH1 0x1 DUP3 AND DUP1 PUSH3 0x481 JUMPI PUSH1 0x7F DUP3 AND SWAP2 POP JUMPDEST PUSH1 0x20 DUP3 LT DUP2 SUB PUSH3 0x497 JUMPI PUSH3 0x496 PUSH3 0x439 JUMP JUMPDEST JUMPDEST POP SWAP2 SWAP1 POP JUMP JUMPDEST PUSH1 0x0 DUP2 SWAP1 POP DUP2 PUSH1 0x0 MSTORE PUSH1 0x20 PUSH1 0x0 KECCAK256 SWAP1 POP SWAP2 SWAP1 POP JUMP JUMPDEST PUSH1 0x0 PUSH1 0x20 PUSH1 0x1F DUP4 ADD DIV SWAP1 POP SWAP2 SWAP1 POP JUMP JUMPDEST PUSH1 0x0 DUP3 DUP3 SHL SWAP1 POP SWAP3 SWAP2 POP POP JUMP JUMPDEST PUSH1 0x0 PUSH1 0x8 DUP4 MUL PUSH3 0x501 PUSH32 0xFFFFFFFFFFFFFFFFFFFFFFFFFFFFFFFFFFFFFFFFFFFFFFFFFFFFFFFFFFFFFFFF DUP3 PUSH3 0x4C2 JUMP JUMPDEST PUSH3 0x50D DUP7 DUP4 PUSH3 0x4C2 JUMP JUMPDEST SWAP6 POP DUP1 NOT DUP5 AND SWAP4 POP DUP1 DUP7 AND DUP5 OR SWAP3 POP POP POP SWAP4 SWAP3 POP POP POP JUMP JUMPDEST PUSH1 0x0 DUP2 SWAP1 POP SWAP2 SWAP1 POP JUMP JUMPDEST PUSH1 0x0 DUP2 SWAP1 POP SWAP2 SWAP1 POP JUMP JUMPDEST PUSH1 0x0 PUSH3 0x55A PUSH3 0x554 PUSH3 0x54E DUP5 PUSH3 0x525 JUMP JUMPDEST PUSH3 0x52F JUMP JUMPDEST PUSH3 0x525 JUMP JUMPDEST SWAP1 POP SWAP2 SWAP1 POP JUMP JUMPDEST PUSH1 0x0 DUP2 SWAP1 POP SWAP2 SWAP1 POP JUMP JUMPDEST PUSH3 0x576 DUP4 PUSH3 0x539 JUMP JUMPDEST PUSH3 0x58E PUSH3 0x585 DUP3 PUSH3 0x561 JUMP JUMPDEST DUP5 DUP5 SLOAD PUSH3 0x4CF JUMP JUMPDEST DUP3 SSTORE POP POP POP POP JUMP JUMPDEST PUSH1 0x0 SWAP1 JUMP JUMPDEST PUSH3 0x5A5 PUSH3 0x596 JUMP JUMPDEST PUSH3 0x5B2 DUP2 DUP5 DUP5 PUSH3 0x56B JUMP JUMPDEST POP POP POP JUMP JUMPDEST JUMPDEST DUP2 DUP2 LT ISZERO PUSH3 0x5DA JUMPI PUSH3 0x5CE PUSH1 0x0 DUP3 PUSH3 0x59B JUMP JUMPDEST PUSH1 0x1 DUP2 ADD SWAP1 POP PUSH3 0x5B8 JUMP JUMPDEST POP POP JUMP JUMPDEST PUSH1 0x1F DUP3 GT ISZERO PUSH3 0x629 JUMPI PUSH3 0x5F3 DUP2 PUSH3 0x49D JUMP JUMPDEST PUSH3 0x5FE DUP5 PUSH3 0x4B2 JUMP JUMPDEST DUP2 ADD PUSH1 0x20 DUP6 LT ISZERO PUSH3 0x60E JUMPI DUP2 SWAP1 POP JUMPDEST PUSH3 0x626 PUSH3 0x61D DUP6 PUSH3 0x4B2 JUMP JUMPDEST DUP4 ADD DUP3 PUSH3 0x5B7 JUMP JUMPDEST POP POP JUMPDEST POP POP POP JUMP JUMPDEST PUSH1 0x0 DUP3 DUP3 SHR SWAP1 POP SWAP3 SWAP2 POP POP JUMP JUMPDEST PUSH1 0x0 PUSH3 0x64E PUSH1 0x0 NOT DUP5 PUSH1 0x8 MUL PUSH3 0x62E JUMP JUMPDEST NOT DUP1 DUP4 AND SWAP2 POP POP SWAP3 SWAP2 POP POP JUMP JUMPDEST PUSH1 0x0 PUSH3 0x669 DUP4 DUP4 PUSH3 0x63B JUMP JUMPDEST SWAP2 POP DUP3 PUSH1 0x2 MUL DUP3 OR SWAP1 POP SWAP3 SWAP2 POP POP JUMP JUMPDEST PUSH3 0x684 DUP3 PUSH3 0x3FF JUMP JUMPDEST PUSH8 0xFFFFFFFFFFFFFFFF DUP2 GT ISZERO PUSH3 0x6A0 JUMPI PUSH3 0x69F PUSH3 0x40A JUMP JUMPDEST JUMPDEST PUSH3 0x6AC DUP3 SLOAD PUSH3 0x468 JUMP JUMPDEST PUSH3 0x6B9 DUP3 DUP3 DUP6 PUSH3 0x5DE JUMP JUMPDEST PUSH1 0x0 PUSH1 0x20 SWAP1 POP PUSH1 0x1F DUP4 GT PUSH1 0x1 DUP2 EQ PUSH3 0x6F1 JUMPI PUSH1 0x0 DUP5 ISZERO PUSH3 0x6DC JUMPI DUP3 DUP8 ADD MLOAD SWAP1 POP JUMPDEST PUSH3 0x6E8 DUP6 DUP3 PUSH3 0x65B JUMP JUMPDEST DUP7 SSTORE POP PUSH3 0x758 JUMP JUMPDEST PUSH1 0x1F NOT DUP5 AND PUSH3 0x701 DUP7 PUSH3 0x49D JUMP JUMPDEST PUSH1 0x0 JUMPDEST DUP3 DUP2 LT ISZERO PUSH3 0x72B JUMPI DUP5 DUP10 ADD MLOAD DUP3 SSTORE PUSH1 0x1 DUP3 ADD SWAP2 POP PUSH1 0x20 DUP6 ADD SWAP5 POP PUSH1 0x20 DUP2 ADD SWAP1 POP PUSH3 0x704 JUMP JUMPDEST DUP7 DUP4 LT ISZERO PUSH3 0x74B JUMPI DUP5 DUP10 ADD MLOAD PUSH3 0x747 PUSH1 0x1F DUP10 AND DUP3 PUSH3 0x63B JUMP JUMPDEST DUP4 SSTORE POP JUMPDEST PUSH1 0x1 PUSH1 0x2 DUP9 MUL ADD DUP9 SSTORE POP POP POP JUMPDEST POP POP POP POP POP POP JUMP JUMPDEST PUSH1 0x0 DUP2 SWAP1 POP SWAP2 SWAP1 POP JUMP JUMPDEST PUSH3 0x775 DUP2 PUSH3 0x760 JUMP JUMPDEST DUP3 MSTORE POP POP JUMP JUMPDEST PUSH3 0x786 DUP2 PUSH3 0x525 JUMP JUMPDEST DUP3 MSTORE POP POP JUMP JUMPDEST PUSH1 0x0 PUSH20 0xFFFFFFFFFFFFFFFFFFFFFFFFFFFFFFFFFFFFFFFF DUP3 AND SWAP1 POP SWAP2 SWAP1 POP JUMP JUMPDEST PUSH1 0x0 PUSH3 0x7B9 DUP3 PUSH3 0x78C JUMP JUMPDEST SWAP1 POP SWAP2 SWAP1 POP JUMP JUMPDEST PUSH3 0x7CB DUP2 PUSH3 0x7AC JUMP JUMPDEST DUP3 MSTORE POP POP JUMP JUMPDEST PUSH1 0x0 PUSH1 0xA0 DUP3 ADD SWAP1 POP PUSH3 0x7E8 PUSH1 0x0 DUP4 ADD DUP9 PUSH3 0x76A JUMP JUMPDEST PUSH3 0x7F7 PUSH1 0x20 DUP4 ADD DUP8 PUSH3 0x76A JUMP JUMPDEST PUSH3 0x806 PUSH1 0x40 DUP4 ADD DUP7 PUSH3 0x76A JUMP JUMPDEST PUSH3 0x815 PUSH1 0x60 DUP4 ADD DUP6 PUSH3 0x77B JUMP JUMPDEST PUSH3 0x824 PUSH1 0x80 DUP4 ADD DUP5 PUSH3 0x7C0 JUMP JUMPDEST SWAP7 SWAP6 POP POP POP POP POP POP JUMP JUMPDEST PUSH1 0x0 DUP3 DUP3 MSTORE PUSH1 0x20 DUP3 ADD SWAP1 POP SWAP3 SWAP2 POP POP JUMP JUMPDEST PUSH1 0x0 JUMPDEST DUP4 DUP2 LT ISZERO PUSH3 0x85F JUMPI DUP1 DUP3 ADD MLOAD DUP2 DUP5 ADD MSTORE PUSH1 0x20 DUP2 ADD SWAP1 POP PUSH3 0x842 JUMP JUMPDEST PUSH1 0x0 DUP5 DUP5 ADD MSTORE POP POP POP POP JUMP JUMPDEST PUSH1 0x0 PUSH1 0x1F NOT PUSH1 0x1F DUP4 ADD AND SWAP1 POP SWAP2 SWAP1 POP JUMP JUMPDEST PUSH1 0x0 PUSH3 0x889 DUP3 PUSH3 0x3FF JUMP JUMPDEST PUSH3 0x895 DUP2 DUP6 PUSH3 0x82E JUMP JUMPDEST SWAP4 POP PUSH3 0x8A7 DUP2 DUP6 PUSH1 0x20 DUP7 ADD PUSH3 0x83F JUMP JUMPDEST PUSH3 0x8B2 DUP2 PUSH3 0x86B JUMP JUMPDEST DUP5 ADD SWAP2 POP POP SWAP3 SWAP2 POP POP JUMP JUMPDEST PUSH1 0x0 PUSH1 0x40 DUP3 ADD SWAP1 POP DUP2 DUP2 SUB PUSH1 0x0 DUP4 ADD MSTORE PUSH3 0x8D9 DUP2 DUP6 PUSH3 0x87C JUMP JUMPDEST SWAP1 POP PUSH3 0x8EA PUSH1 0x20 DUP4 ADD DUP5 PUSH3 0x77B JUMP JUMPDEST SWAP4 SWAP3 POP POP POP JUMP JUMPDEST PUSH1 0x0 PUSH1 0x20 DUP3 ADD SWAP1 POP DUP2 DUP2 SUB PUSH1 0x0 DUP4 ADD MSTORE PUSH3 0x90D DUP2 DUP5 PUSH3 0x87C JUMP JUMPDEST SWAP1 POP SWAP3 SWAP2 POP POP JUMP JUMPDEST PUSH1 0x0 DUP2 MLOAD SWAP1 POP SWAP2 SWAP1 POP JUMP JUMPDEST PUSH1 0x0 DUP2 SWAP1 POP PUSH1 0x20 DUP3 ADD SWAP1 POP SWAP2 SWAP1 POP JUMP JUMPDEST PUSH1 0x0 PUSH3 0x93E DUP3 MLOAD PUSH3 0x760 JUMP JUMPDEST DUP1 SWAP2 POP POP SWAP2 SWAP1 POP JUMP JUMPDEST PUSH1 0x0 PUSH3 0x954 DUP3 PUSH3 0x915 JUMP JUMPDEST DUP3 PUSH3 0x960 DUP5 PUSH3 0x920 JUMP JUMPDEST SWAP1 POP PUSH3 0x96D DUP2 PUSH3 0x930 JUMP JUMPDEST SWAP3 POP PUSH1 0x20 DUP3 LT ISZERO PUSH3 0x9B0 JUMPI PUSH3 0x9AB PUSH32 0xFFFFFFFFFFFFFFFFFFFFFFFFFFFFFFFFFFFFFFFFFFFFFFFFFFFFFFFFFFFFFFFF DUP4 PUSH1 0x20 SUB PUSH1 0x8 MUL PUSH3 0x4C2 JUMP JUMPDEST DUP4 AND SWAP3 POP JUMPDEST POP POP SWAP2 SWAP1 POP JUMP JUMPDEST PUSH32 0x4E487B7100000000000000000000000000000000000000000000000000000000 PUSH1 0x0 MSTORE PUSH1 0x51 PUSH1 0x4 MSTORE PUSH1 0x24 PUSH1 0x0 REVERT JUMPDEST PUSH1 0x80 MLOAD PUSH1 0xA0 MLOAD PUSH1 0xC0 MLOAD PUSH1 0xE0 MLOAD PUSH2 0x100 MLOAD PUSH2 0x120 MLOAD PUSH2 0x140 MLOAD PUSH2 0x1909 PUSH3 0xA41 PUSH1 0x0 CODECOPY PUSH1 0x0 PUSH2 0x50B ADD MSTORE PUSH1 0x0 PUSH2 0x4D0 ADD MSTORE PUSH1 0x0 PUSH2 0xB5A ADD MSTORE PUSH1 0x0 PUSH2 0xB39 ADD MSTORE PUSH1 0x0 PUSH2 0x73A ADD MSTORE PUSH1 0x0 PUSH2 0x790 ADD MSTORE PUSH1 0x0 PUSH2 0x7B9 ADD MSTORE PUSH2 0x1909 PUSH1 0x0 RETURN INVALID PUSH1 0x80 PUSH1 0x40 MSTORE CALLVALUE DUP1 ISZERO PUSH2 0x10 JUMPI PUSH1 0x0 DUP1 REVERT JUMPDEST POP PUSH1 0x4 CALLDATASIZE LT PUSH2 0x57 JUMPI PUSH1 0x0 CALLDATALOAD PUSH1 0xE0 SHR DUP1 PUSH4 0x1C50EED5 EQ PUSH2 0x5C JUMPI DUP1 PUSH4 0x84B0196E EQ PUSH2 0x7A JUMPI DUP1 PUSH4 0x887C0036 EQ PUSH2 0x9E JUMPI DUP1 PUSH4 0xD67BDD25 EQ PUSH2 0xBA JUMPI DUP1 PUSH4 0xDD26FE92 EQ PUSH2 0xD8 JUMPI JUMPDEST PUSH1 0x0 DUP1 REVERT JUMPDEST PUSH2 0x64 PUSH2 0x108 JUMP JUMPDEST PUSH1 0x40 MLOAD PUSH2 0x71 SWAP2 SWAP1 PUSH2 0xC9F JUMP JUMPDEST PUSH1 0x40 MLOAD DUP1 SWAP2 SUB SWAP1 RETURN JUMPDEST PUSH2 0x82 PUSH2 0x196 JUMP JUMPDEST PUSH1 0x40 MLOAD PUSH2 0x95 SWAP8 SWAP7 SWAP6 SWAP5 SWAP4 SWAP3 SWAP2 SWAP1 PUSH2 0xE2D JUMP JUMPDEST PUSH1 0x40 MLOAD DUP1 SWAP2 SUB SWAP1 RETURN JUMPDEST PUSH2 0xB8 PUSH1 0x4 DUP1 CALLDATASIZE SUB DUP2 ADD SWAP1 PUSH2 0xB3 SWAP2 SWAP1 PUSH2 0xF7A JUMP JUMPDEST PUSH2 0x240 JUMP JUMPDEST STOP JUMPDEST PUSH2 0xC2 PUSH2 0x397 JUMP JUMPDEST PUSH1 0x40 MLOAD PUSH2 0xCF SWAP2 SWAP1 PUSH2 0x1011 JUMP JUMPDEST PUSH1 0x40 MLOAD DUP1 SWAP2 SUB SWAP1 RETURN JUMPDEST PUSH2 0xF2 PUSH1 0x4 DUP1 CALLDATASIZE SUB DUP2 ADD SWAP1 PUSH2 0xED SWAP2 SWAP1 PUSH2 0xF7A JUMP JUMPDEST PUSH2 0x3BD JUMP JUMPDEST PUSH1 0x40 MLOAD PUSH2 0xFF SWAP2 SWAP1 PUSH2 0x1047 JUMP JUMPDEST PUSH1 0x40 MLOAD DUP1 SWAP2 SUB SWAP1 RETURN JUMPDEST PUSH1 0x2 DUP1 SLOAD PUSH2 0x115 SWAP1 PUSH2 0x1091 JUMP JUMPDEST DUP1 PUSH1 0x1F ADD PUSH1 0x20 DUP1 SWAP2 DIV MUL PUSH1 0x20 ADD PUSH1 0x40 MLOAD SWAP1 DUP2 ADD PUSH1 0x40 MSTORE DUP1 SWAP3 SWAP2 SWAP1 DUP2 DUP2 MSTORE PUSH1 0x20 ADD DUP3 DUP1 SLOAD PUSH2 0x141 SWAP1 PUSH2 0x1091 JUMP JUMPDEST DUP1 ISZERO PUSH2 0x18E JUMPI DUP1 PUSH1 0x1F LT PUSH2 0x163 JUMPI PUSH2 0x100 DUP1 DUP4 SLOAD DIV MUL DUP4 MSTORE SWAP2 PUSH1 0x20 ADD SWAP2 PUSH2 0x18E JUMP JUMPDEST DUP3 ADD SWAP2 SWAP1 PUSH1 0x0 MSTORE PUSH1 0x20 PUSH1 0x0 KECCAK256 SWAP1 JUMPDEST DUP2 SLOAD DUP2 MSTORE SWAP1 PUSH1 0x1 ADD SWAP1 PUSH1 0x20 ADD DUP1 DUP4 GT PUSH2 0x171 JUMPI DUP3 SWAP1 SUB PUSH1 0x1F AND DUP3 ADD SWAP2 JUMPDEST POP POP POP POP POP DUP2 JUMP JUMPDEST PUSH1 0x0 PUSH1 0x60 DUP1 PUSH1 0x0 DUP1 PUSH1 0x0 PUSH1 0x60 PUSH2 0x1AA PUSH2 0x4C7 JUMP JUMPDEST PUSH2 0x1B2 PUSH2 0x502 JUMP JUMPDEST CHAINID ADDRESS PUSH1 0x0 DUP1 SHL PUSH1 0x0 PUSH8 0xFFFFFFFFFFFFFFFF DUP2 GT ISZERO PUSH2 0x1D3 JUMPI PUSH2 0x1D2 PUSH2 0x10C2 JUMP JUMPDEST JUMPDEST PUSH1 0x40 MLOAD SWAP1 DUP1 DUP3 MSTORE DUP1 PUSH1 0x20 MUL PUSH1 0x20 ADD DUP3 ADD PUSH1 0x40 MSTORE DUP1 ISZERO PUSH2 0x201 JUMPI DUP2 PUSH1 0x20 ADD PUSH1 0x20 DUP3 MUL DUP1 CALLDATASIZE DUP4 CALLDATACOPY DUP1 DUP3 ADD SWAP2 POP POP SWAP1 POP JUMPDEST POP PUSH32 0xF00000000000000000000000000000000000000000000000000000000000000 SWAP6 SWAP5 SWAP4 SWAP3 SWAP2 SWAP1 SWAP7 POP SWAP7 POP SWAP7 POP SWAP7 POP SWAP7 POP SWAP7 POP SWAP7 POP SWAP1 SWAP2 SWAP3 SWAP4 SWAP5 SWAP6 SWAP7 JUMP JUMPDEST PUSH2 0x24D DUP6 DUP6 DUP6 DUP6 DUP6 PUSH2 0x3BD JUMP JUMPDEST PUSH2 0x28C JUMPI PUSH1 0x40 MLOAD PUSH32 0x8C379A000000000000000000000000000000000000000000000000000000000 DUP2 MSTORE PUSH1 0x4 ADD PUSH2 0x283 SWAP1 PUSH2 0x113D JUMP JUMPDEST PUSH1 0x40 MLOAD DUP1 SWAP2 SUB SWAP1 REVERT JUMPDEST DUP5 PUSH1 0x20 ADD CALLDATALOAD TIMESTAMP GT ISZERO PUSH2 0x2D3 JUMPI PUSH1 0x40 MLOAD PUSH32 0x8C379A000000000000000000000000000000000000000000000000000000000 DUP2 MSTORE PUSH1 0x4 ADD PUSH2 0x2CA SWAP1 PUSH2 0x11A9 JUMP JUMPDEST PUSH1 0x40 MLOAD DUP1 SWAP2 SUB SWAP1 REVERT JUMPDEST DUP5 DUP1 PUSH1 0x0 ADD SWAP1 PUSH2 0x2E3 SWAP2 SWAP1 PUSH2 0x11D8 JUMP JUMPDEST PUSH1 0x2 SWAP2 DUP3 PUSH2 0x2F2 SWAP3 SWAP2 SWAP1 PUSH2 0x13F2 JUMP JUMPDEST POP CALLER PUSH1 0x3 PUSH1 0x0 PUSH2 0x100 EXP DUP2 SLOAD DUP2 PUSH20 0xFFFFFFFFFFFFFFFFFFFFFFFFFFFFFFFFFFFFFFFF MUL NOT AND SWAP1 DUP4 PUSH20 0xFFFFFFFFFFFFFFFFFFFFFFFFFFFFFFFFFFFFFFFF AND MUL OR SWAP1 SSTORE POP PUSH32 0xFE805C34BE9E63A416B9ABA99C6C62782DAFB9620895945675BBBE5131AEB1A1 PUSH1 0x2 PUSH1 0x3 PUSH1 0x0 SWAP1 SLOAD SWAP1 PUSH2 0x100 EXP SWAP1 DIV PUSH20 0xFFFFFFFFFFFFFFFFFFFFFFFFFFFFFFFFFFFFFFFF AND PUSH1 0x40 MLOAD PUSH2 0x388 SWAP3 SWAP2 SWAP1 PUSH2 0x1546 JUMP JUMPDEST PUSH1 0x40 MLOAD DUP1 SWAP2 SUB SWAP1 LOG1 POP POP POP POP POP JUMP JUMPDEST PUSH1 0x3 PUSH1 0x0 SWAP1 SLOAD SWAP1 PUSH2 0x100 EXP SWAP1 DIV PUSH20 0xFFFFFFFFFFFFFFFFFFFFFFFFFFFFFFFFFFFFFFFF AND DUP2 JUMP JUMPDEST PUSH1 0x0 DUP1 PUSH2 0x3DA PUSH2 0x3D5 DUP9 PUSH2 0x3D0 SWAP1 PUSH2 0x171E JUMP JUMPDEST PUSH2 0x53D JUMP JUMPDEST PUSH2 0x5A0 JUMP JUMPDEST SWAP1 POP PUSH1 0x0 PUSH2 0x3EA DUP3 DUP8 DUP8 DUP8 PUSH2 0x5BA JUMP JUMPDEST SWAP1 POP PUSH2 0x42B PUSH1 0x40 MLOAD DUP1 PUSH1 0x40 ADD PUSH1 0x40 MSTORE DUP1 PUSH1 0x15 DUP2 MSTORE PUSH1 0x20 ADD PUSH32 0x5265636F766572656420616464726573733A2025730000000000000000000000 DUP2 MSTORE POP DUP3 PUSH2 0x5EA JUMP JUMPDEST PUSH2 0x46A PUSH1 0x40 MLOAD DUP1 PUSH1 0x40 ADD PUSH1 0x40 MSTORE DUP1 PUSH1 0x12 DUP2 MSTORE PUSH1 0x20 ADD PUSH32 0x53656E64657220616464726573733A2025730000000000000000000000000000 DUP2 MSTORE POP DUP9 PUSH2 0x5EA JUMP JUMPDEST DUP7 PUSH20 0xFFFFFFFFFFFFFFFFFFFFFFFFFFFFFFFFFFFFFFFF AND DUP2 PUSH20 0xFFFFFFFFFFFFFFFFFFFFFFFFFFFFFFFFFFFFFFFF AND EQ SWAP3 POP POP POP SWAP6 SWAP5 POP POP POP POP POP JUMP JUMPDEST PUSH1 0x0 PUSH11 0x636F6E736F6C652E6C6F67 SWAP1 POP PUSH1 0x0 DUP1 DUP4 MLOAD PUSH1 0x20 DUP6 ADD DUP5 GAS STATICCALL POP POP POP JUMP JUMPDEST PUSH1 0x60 PUSH2 0x4FD PUSH1 0x0 PUSH32 0x0 PUSH2 0x686 SWAP1 SWAP2 SWAP1 PUSH4 0xFFFFFFFF AND JUMP JUMPDEST SWAP1 POP SWAP1 JUMP JUMPDEST PUSH1 0x60 PUSH2 0x538 PUSH1 0x1 PUSH32 0x0 PUSH2 0x686 SWAP1 SWAP2 SWAP1 PUSH4 0xFFFFFFFF AND JUMP JUMPDEST SWAP1 POP SWAP1 JUMP JUMPDEST PUSH1 0x0 PUSH32 0xFF68792D44A8D6B8489C8BF05A98AFB27FFCEE59FF7FE51E62E896E3AB56E7EE DUP3 PUSH1 0x0 ADD MLOAD DUP1 MLOAD SWAP1 PUSH1 0x20 ADD KECCAK256 DUP4 PUSH1 0x20 ADD MLOAD PUSH1 0x40 MLOAD PUSH1 0x20 ADD PUSH2 0x583 SWAP4 SWAP3 SWAP2 SWAP1 PUSH2 0x1731 JUMP JUMPDEST PUSH1 0x40 MLOAD PUSH1 0x20 DUP2 DUP4 SUB SUB DUP2 MSTORE SWAP1 PUSH1 0x40 MSTORE DUP1 MLOAD SWAP1 PUSH1 0x20 ADD KECCAK256 SWAP1 POP SWAP2 SWAP1 POP JUMP JUMPDEST PUSH1 0x0 PUSH2 0x5B3 PUSH2 0x5AD PUSH2 0x736 JUMP JUMPDEST DUP4 PUSH2 0x7ED JUMP JUMPDEST SWAP1 POP SWAP2 SWAP1 POP JUMP JUMPDEST PUSH1 0x0 DUP1 PUSH1 0x0 DUP1 PUSH2 0x5CC DUP9 DUP9 DUP9 DUP9 PUSH2 0x82E JUMP JUMPDEST SWAP3 POP SWAP3 POP SWAP3 POP PUSH2 0x5DC DUP3 DUP3 PUSH2 0x922 JUMP JUMPDEST DUP3 SWAP4 POP POP POP POP SWAP5 SWAP4 POP POP POP POP JUMP JUMPDEST PUSH2 0x682 DUP3 DUP3 PUSH1 0x40 MLOAD PUSH1 0x24 ADD PUSH2 0x600 SWAP3 SWAP2 SWAP1 PUSH2 0x1768 JUMP JUMPDEST PUSH1 0x40 MLOAD PUSH1 0x20 DUP2 DUP4 SUB SUB DUP2 MSTORE SWAP1 PUSH1 0x40 MSTORE PUSH32 0x319AF33300000000000000000000000000000000000000000000000000000000 PUSH28 0xFFFFFFFFFFFFFFFFFFFFFFFFFFFFFFFFFFFFFFFFFFFFFFFFFFFFFFFF NOT AND PUSH1 0x20 DUP3 ADD DUP1 MLOAD PUSH28 0xFFFFFFFFFFFFFFFFFFFFFFFFFFFFFFFFFFFFFFFFFFFFFFFFFFFFFFFF DUP4 DUP2 DUP4 AND OR DUP4 MSTORE POP POP POP POP PUSH2 0xA86 JUMP JUMPDEST POP POP JUMP JUMPDEST PUSH1 0x60 PUSH1 0xFF PUSH1 0x0 SHL DUP4 EQ PUSH2 0x6A3 JUMPI PUSH2 0x69C DUP4 PUSH2 0xAA0 JUMP JUMPDEST SWAP1 POP PUSH2 0x730 JUMP JUMPDEST DUP2 DUP1 SLOAD PUSH2 0x6AF SWAP1 PUSH2 0x1091 JUMP JUMPDEST DUP1 PUSH1 0x1F ADD PUSH1 0x20 DUP1 SWAP2 DIV MUL PUSH1 0x20 ADD PUSH1 0x40 MLOAD SWAP1 DUP2 ADD PUSH1 0x40 MSTORE DUP1 SWAP3 SWAP2 SWAP1 DUP2 DUP2 MSTORE PUSH1 0x20 ADD DUP3 DUP1 SLOAD PUSH2 0x6DB SWAP1 PUSH2 0x1091 JUMP JUMPDEST DUP1 ISZERO PUSH2 0x728 JUMPI DUP1 PUSH1 0x1F LT PUSH2 0x6FD JUMPI PUSH2 0x100 DUP1 DUP4 SLOAD DIV MUL DUP4 MSTORE SWAP2 PUSH1 0x20 ADD SWAP2 PUSH2 0x728 JUMP JUMPDEST DUP3 ADD SWAP2 SWAP1 PUSH1 0x0 MSTORE PUSH1 0x20 PUSH1 0x0 KECCAK256 SWAP1 JUMPDEST DUP2 SLOAD DUP2 MSTORE SWAP1 PUSH1 0x1 ADD SWAP1 PUSH1 0x20 ADD DUP1 DUP4 GT PUSH2 0x70B JUMPI DUP3 SWAP1 SUB PUSH1 0x1F AND DUP3 ADD SWAP2 JUMPDEST POP POP POP POP POP SWAP1 POP JUMPDEST SWAP3 SWAP2 POP POP JUMP JUMPDEST PUSH1 0x0 PUSH32 0x0 PUSH20 0xFFFFFFFFFFFFFFFFFFFFFFFFFFFFFFFFFFFFFFFF AND ADDRESS PUSH20 0xFFFFFFFFFFFFFFFFFFFFFFFFFFFFFFFFFFFFFFFF AND EQ DUP1 ISZERO PUSH2 0x7B2 JUMPI POP PUSH32 0x0 CHAINID EQ JUMPDEST ISZERO PUSH2 0x7DF JUMPI PUSH32 0x0 SWAP1 POP PUSH2 0x7EA JUMP JUMPDEST PUSH2 0x7E7 PUSH2 0xB14 JUMP JUMPDEST SWAP1 POP JUMPDEST SWAP1 JUMP JUMPDEST PUSH1 0x0 PUSH1 0x40 MLOAD PUSH32 0x1901000000000000000000000000000000000000000000000000000000000000 DUP2 MSTORE DUP4 PUSH1 0x2 DUP3 ADD MSTORE DUP3 PUSH1 0x22 DUP3 ADD MSTORE PUSH1 0x42 DUP2 KECCAK256 SWAP2 POP POP SWAP3 SWAP2 POP POP JUMP JUMPDEST PUSH1 0x0 DUP1 PUSH1 0x0 PUSH32 0x7FFFFFFFFFFFFFFFFFFFFFFFFFFFFFFF5D576E7357A4501DDFE92F46681B20A0 DUP5 PUSH1 0x0 SHR GT ISZERO PUSH2 0x86E JUMPI PUSH1 0x0 PUSH1 0x3 DUP6 SWAP3 POP SWAP3 POP SWAP3 POP PUSH2 0x918 JUMP JUMPDEST PUSH1 0x0 PUSH1 0x1 DUP9 DUP9 DUP9 DUP9 PUSH1 0x40 MLOAD PUSH1 0x0 DUP2 MSTORE PUSH1 0x20 ADD PUSH1 0x40 MSTORE PUSH1 0x40 MLOAD PUSH2 0x893 SWAP5 SWAP4 SWAP3 SWAP2 SWAP1 PUSH2 0x17A7 JUMP JUMPDEST PUSH1 0x20 PUSH1 0x40 MLOAD PUSH1 0x20 DUP2 SUB SWAP1 DUP1 DUP5 SUB SWAP1 DUP6 GAS STATICCALL ISZERO DUP1 ISZERO PUSH2 0x8B5 JUMPI RETURNDATASIZE PUSH1 0x0 DUP1 RETURNDATACOPY RETURNDATASIZE PUSH1 0x0 REVERT JUMPDEST POP POP POP PUSH1 0x20 PUSH1 0x40 MLOAD SUB MLOAD SWAP1 POP PUSH1 0x0 PUSH20 0xFFFFFFFFFFFFFFFFFFFFFFFFFFFFFFFFFFFFFFFF AND DUP2 PUSH20 0xFFFFFFFFFFFFFFFFFFFFFFFFFFFFFFFFFFFFFFFF AND SUB PUSH2 0x909 JUMPI PUSH1 0x0 PUSH1 0x1 PUSH1 0x0 DUP1 SHL SWAP4 POP SWAP4 POP SWAP4 POP POP PUSH2 0x918 JUMP JUMPDEST DUP1 PUSH1 0x0 DUP1 PUSH1 0x0 SHL SWAP4 POP SWAP4 POP SWAP4 POP POP JUMPDEST SWAP5 POP SWAP5 POP SWAP5 SWAP2 POP POP JUMP JUMPDEST PUSH1 0x0 PUSH1 0x3 DUP2 GT ISZERO PUSH2 0x936 JUMPI PUSH2 0x935 PUSH2 0x17EC JUMP JUMPDEST JUMPDEST DUP3 PUSH1 0x3 DUP2 GT ISZERO PUSH2 0x949 JUMPI PUSH2 0x948 PUSH2 0x17EC JUMP JUMPDEST JUMPDEST SUB ISZERO PUSH2 0xA82 JUMPI PUSH1 0x1 PUSH1 0x3 DUP2 GT ISZERO PUSH2 0x963 JUMPI PUSH2 0x962 PUSH2 0x17EC JUMP JUMPDEST JUMPDEST DUP3 PUSH1 0x3 DUP2 GT ISZERO PUSH2 0x976 JUMPI PUSH2 0x975 PUSH2 0x17EC JUMP JUMPDEST JUMPDEST SUB PUSH2 0x9AD JUMPI PUSH1 0x40 MLOAD PUSH32 0xF645EEDF00000000000000000000000000000000000000000000000000000000 DUP2 MSTORE PUSH1 0x4 ADD PUSH1 0x40 MLOAD DUP1 SWAP2 SUB SWAP1 REVERT JUMPDEST PUSH1 0x2 PUSH1 0x3 DUP2 GT ISZERO PUSH2 0x9C1 JUMPI PUSH2 0x9C0 PUSH2 0x17EC JUMP JUMPDEST JUMPDEST DUP3 PUSH1 0x3 DUP2 GT ISZERO PUSH2 0x9D4 JUMPI PUSH2 0x9D3 PUSH2 0x17EC JUMP JUMPDEST JUMPDEST SUB PUSH2 0xA19 JUMPI DUP1 PUSH1 0x0 SHR PUSH1 0x40 MLOAD PUSH32 0xFCE698F700000000000000000000000000000000000000000000000000000000 DUP2 MSTORE PUSH1 0x4 ADD PUSH2 0xA10 SWAP2 SWAP1 PUSH2 0x181B JUMP JUMPDEST PUSH1 0x40 MLOAD DUP1 SWAP2 SUB SWAP1 REVERT JUMPDEST PUSH1 0x3 DUP1 DUP2 GT ISZERO PUSH2 0xA2C JUMPI PUSH2 0xA2B PUSH2 0x17EC JUMP JUMPDEST JUMPDEST DUP3 PUSH1 0x3 DUP2 GT ISZERO PUSH2 0xA3F JUMPI PUSH2 0xA3E PUSH2 0x17EC JUMP JUMPDEST JUMPDEST SUB PUSH2 0xA81 JUMPI DUP1 PUSH1 0x40 MLOAD PUSH32 0xD78BCE0C00000000000000000000000000000000000000000000000000000000 DUP2 MSTORE PUSH1 0x4 ADD PUSH2 0xA78 SWAP2 SWAP1 PUSH2 0x1836 JUMP JUMPDEST PUSH1 0x40 MLOAD DUP1 SWAP2 SUB SWAP1 REVERT JUMPDEST JUMPDEST POP POP JUMP JUMPDEST PUSH2 0xA9D DUP2 PUSH2 0xA95 PUSH2 0x4A6 PUSH2 0xBAA JUMP JUMPDEST PUSH4 0xFFFFFFFF AND JUMP JUMPDEST POP JUMP JUMPDEST PUSH1 0x60 PUSH1 0x0 PUSH2 0xAAD DUP4 PUSH2 0xBB5 JUMP JUMPDEST SWAP1 POP PUSH1 0x0 PUSH1 0x20 PUSH8 0xFFFFFFFFFFFFFFFF DUP2 GT ISZERO PUSH2 0xACC JUMPI PUSH2 0xACB PUSH2 0x10C2 JUMP JUMPDEST JUMPDEST PUSH1 0x40 MLOAD SWAP1 DUP1 DUP3 MSTORE DUP1 PUSH1 0x1F ADD PUSH1 0x1F NOT AND PUSH1 0x20 ADD DUP3 ADD PUSH1 0x40 MSTORE DUP1 ISZERO PUSH2 0xAFE JUMPI DUP2 PUSH1 0x20 ADD PUSH1 0x1 DUP3 MUL DUP1 CALLDATASIZE DUP4 CALLDATACOPY DUP1 DUP3 ADD SWAP2 POP POP SWAP1 POP JUMPDEST POP SWAP1 POP DUP2 DUP2 MSTORE DUP4 PUSH1 0x20 DUP3 ADD MSTORE DUP1 SWAP3 POP POP POP SWAP2 SWAP1 POP JUMP JUMPDEST PUSH1 0x0 PUSH32 0x8B73C3C69BB8FE3D512ECC4CF759CC79239F7B179B0FFACAA9A75D522B39400F PUSH32 0x0 PUSH32 0x0 CHAINID ADDRESS PUSH1 0x40 MLOAD PUSH1 0x20 ADD PUSH2 0xB8F SWAP6 SWAP5 SWAP4 SWAP3 SWAP2 SWAP1 PUSH2 0x1851 JUMP JUMPDEST PUSH1 0x40 MLOAD PUSH1 0x20 DUP2 DUP4 SUB SUB DUP2 MSTORE SWAP1 PUSH1 0x40 MSTORE DUP1 MLOAD SWAP1 PUSH1 0x20 ADD KECCAK256 SWAP1 POP SWAP1 JUMP JUMPDEST PUSH2 0xC05 DUP2 SWAP1 POP SWAP2 SWAP1 POP JUMP JUMPDEST PUSH1 0x0 DUP1 PUSH1 0xFF DUP4 PUSH1 0x0 SHR AND SWAP1 POP PUSH1 0x1F DUP2 GT ISZERO PUSH2 0xBFC JUMPI PUSH1 0x40 MLOAD PUSH32 0xB3512B0C00000000000000000000000000000000000000000000000000000000 DUP2 MSTORE PUSH1 0x4 ADD PUSH1 0x40 MLOAD DUP1 SWAP2 SUB SWAP1 REVERT JUMPDEST DUP1 SWAP2 POP POP SWAP2 SWAP1 POP JUMP JUMPDEST PUSH2 0xC0D PUSH2 0x18A4 JUMP JUMPDEST JUMP JUMPDEST PUSH1 0x0 DUP2 MLOAD SWAP1 POP SWAP2 SWAP1 POP JUMP JUMPDEST PUSH1 0x0 DUP3 DUP3 MSTORE PUSH1 0x20 DUP3 ADD SWAP1 POP SWAP3 SWAP2 POP POP JUMP JUMPDEST PUSH1 0x0 JUMPDEST DUP4 DUP2 LT ISZERO PUSH2 0xC49 JUMPI DUP1 DUP3 ADD MLOAD DUP2 DUP5 ADD MSTORE PUSH1 0x20 DUP2 ADD SWAP1 POP PUSH2 0xC2E JUMP JUMPDEST PUSH1 0x0 DUP5 DUP5 ADD MSTORE POP POP POP POP JUMP JUMPDEST PUSH1 0x0 PUSH1 0x1F NOT PUSH1 0x1F DUP4 ADD AND SWAP1 POP SWAP2 SWAP1 POP JUMP JUMPDEST PUSH1 0x0 PUSH2 0xC71 DUP3 PUSH2 0xC0F JUMP JUMPDEST PUSH2 0xC7B DUP2 DUP6 PUSH2 0xC1A JUMP JUMPDEST SWAP4 POP PUSH2 0xC8B DUP2 DUP6 PUSH1 0x20 DUP7 ADD PUSH2 0xC2B JUMP JUMPDEST PUSH2 0xC94 DUP2 PUSH2 0xC55 JUMP JUMPDEST DUP5 ADD SWAP2 POP POP SWAP3 SWAP2 POP POP JUMP JUMPDEST PUSH1 0x0 PUSH1 0x20 DUP3 ADD SWAP1 POP DUP2 DUP2 SUB PUSH1 0x0 DUP4 ADD MSTORE PUSH2 0xCB9 DUP2 DUP5 PUSH2 0xC66 JUMP JUMPDEST SWAP1 POP SWAP3 SWAP2 POP POP JUMP JUMPDEST PUSH1 0x0 PUSH32 0xFF00000000000000000000000000000000000000000000000000000000000000 DUP3 AND SWAP1 POP SWAP2 SWAP1 POP JUMP JUMPDEST PUSH2 0xCF6 DUP2 PUSH2 0xCC1 JUMP JUMPDEST DUP3 MSTORE POP POP JUMP JUMPDEST PUSH1 0x0 DUP2 SWAP1 POP SWAP2 SWAP1 POP JUMP JUMPDEST PUSH2 0xD0F DUP2 PUSH2 0xCFC JUMP JUMPDEST DUP3 MSTORE POP POP JUMP JUMPDEST PUSH1 0x0 PUSH20 0xFFFFFFFFFFFFFFFFFFFFFFFFFFFFFFFFFFFFFFFF DUP3 AND SWAP1 POP SWAP2 SWAP1 POP JUMP JUMPDEST PUSH1 0x0 PUSH2 0xD40 DUP3 PUSH2 0xD15 JUMP JUMPDEST SWAP1 POP SWAP2 SWAP1 POP JUMP JUMPDEST PUSH2 0xD50 DUP2 PUSH2 0xD35 JUMP JUMPDEST DUP3 MSTORE POP POP JUMP JUMPDEST PUSH1 0x0 DUP2 SWAP1 POP SWAP2 SWAP1 POP JUMP JUMPDEST PUSH2 0xD69 DUP2 PUSH2 0xD56 JUMP JUMPDEST DUP3 MSTORE POP POP JUMP JUMPDEST PUSH1 0x0 DUP2 MLOAD SWAP1 POP SWAP2 SWAP1 POP JUMP JUMPDEST PUSH1 0x0 DUP3 DUP3 MSTORE PUSH1 0x20 DUP3 ADD SWAP1 POP SWAP3 SWAP2 POP POP JUMP JUMPDEST PUSH1 0x0 DUP2 SWAP1 POP PUSH1 0x20 DUP3 ADD SWAP1 POP SWAP2 SWAP1 POP JUMP JUMPDEST PUSH2 0xDA4 DUP2 PUSH2 0xCFC JUMP JUMPDEST DUP3 MSTORE POP POP JUMP JUMPDEST PUSH1 0x0 PUSH2 0xDB6 DUP4 DUP4 PUSH2 0xD9B JUMP JUMPDEST PUSH1 0x20 DUP4 ADD SWAP1 POP SWAP3 SWAP2 POP POP JUMP JUMPDEST PUSH1 0x0 PUSH1 0x20 DUP3 ADD SWAP1 POP SWAP2 SWAP1 POP JUMP JUMPDEST PUSH1 0x0 PUSH2 0xDDA DUP3 PUSH2 0xD6F JUMP JUMPDEST PUSH2 0xDE4 DUP2 DUP6 PUSH2 0xD7A JUMP JUMPDEST SWAP4 POP PUSH2 0xDEF DUP4 PUSH2 0xD8B JUMP JUMPDEST DUP1 PUSH1 0x0 JUMPDEST DUP4 DUP2 LT ISZERO PUSH2 0xE20 JUMPI DUP2 MLOAD PUSH2 0xE07 DUP9 DUP3 PUSH2 0xDAA JUMP JUMPDEST SWAP8 POP PUSH2 0xE12 DUP4 PUSH2 0xDC2 JUMP JUMPDEST SWAP3 POP POP PUSH1 0x1 DUP2 ADD SWAP1 POP PUSH2 0xDF3 JUMP JUMPDEST POP DUP6 SWAP4 POP POP POP POP SWAP3 SWAP2 POP POP JUMP JUMPDEST PUSH1 0x0 PUSH1 0xE0 DUP3 ADD SWAP1 POP PUSH2 0xE42 PUSH1 0x0 DUP4 ADD DUP11 PUSH2 0xCED JUMP JUMPDEST DUP2 DUP2 SUB PUSH1 0x20 DUP4 ADD MSTORE PUSH2 0xE54 DUP2 DUP10 PUSH2 0xC66 JUMP JUMPDEST SWAP1 POP DUP2 DUP2 SUB PUSH1 0x40 DUP4 ADD MSTORE PUSH2 0xE68 DUP2 DUP9 PUSH2 0xC66 JUMP JUMPDEST SWAP1 POP PUSH2 0xE77 PUSH1 0x60 DUP4 ADD DUP8 PUSH2 0xD06 JUMP JUMPDEST PUSH2 0xE84 PUSH1 0x80 DUP4 ADD DUP7 PUSH2 0xD47 JUMP JUMPDEST PUSH2 0xE91 PUSH1 0xA0 DUP4 ADD DUP6 PUSH2 0xD60 JUMP JUMPDEST DUP2 DUP2 SUB PUSH1 0xC0 DUP4 ADD MSTORE PUSH2 0xEA3 DUP2 DUP5 PUSH2 0xDCF JUMP JUMPDEST SWAP1 POP SWAP9 SWAP8 POP POP POP POP POP POP POP POP JUMP JUMPDEST PUSH1 0x0 PUSH1 0x40 MLOAD SWAP1 POP SWAP1 JUMP JUMPDEST PUSH1 0x0 DUP1 REVERT JUMPDEST PUSH1 0x0 DUP1 REVERT JUMPDEST PUSH1 0x0 DUP1 REVERT JUMPDEST PUSH1 0x0 PUSH1 0x40 DUP3 DUP5 SUB SLT ISZERO PUSH2 0xEE0 JUMPI PUSH2 0xEDF PUSH2 0xEC5 JUMP JUMPDEST JUMPDEST DUP2 SWAP1 POP SWAP3 SWAP2 POP POP JUMP JUMPDEST PUSH2 0xEF2 DUP2 PUSH2 0xD35 JUMP JUMPDEST DUP2 EQ PUSH2 0xEFD JUMPI PUSH1 0x0 DUP1 REVERT JUMPDEST POP JUMP JUMPDEST PUSH1 0x0 DUP2 CALLDATALOAD SWAP1 POP PUSH2 0xF0F DUP2 PUSH2 0xEE9 JUMP JUMPDEST SWAP3 SWAP2 POP POP JUMP JUMPDEST PUSH1 0x0 PUSH1 0xFF DUP3 AND SWAP1 POP SWAP2 SWAP1 POP JUMP JUMPDEST PUSH2 0xF2B DUP2 PUSH2 0xF15 JUMP JUMPDEST DUP2 EQ PUSH2 0xF36 JUMPI PUSH1 0x0 DUP1 REVERT JUMPDEST POP JUMP JUMPDEST PUSH1 0x0 DUP2 CALLDATALOAD SWAP1 POP PUSH2 0xF48 DUP2 PUSH2 0xF22 JUMP JUMPDEST SWAP3 SWAP2 POP POP JUMP JUMPDEST PUSH2 0xF57 DUP2 PUSH2 0xD56 JUMP JUMPDEST DUP2 EQ PUSH2 0xF62 JUMPI PUSH1 0x0 DUP1 REVERT JUMPDEST POP JUMP JUMPDEST PUSH1 0x0 DUP2 CALLDATALOAD SWAP1 POP PUSH2 0xF74 DUP2 PUSH2 0xF4E JUMP JUMPDEST SWAP3 SWAP2 POP POP JUMP JUMPDEST PUSH1 0x0 DUP1 PUSH1 0x0 DUP1 PUSH1 0x0 PUSH1 0xA0 DUP7 DUP9 SUB SLT ISZERO PUSH2 0xF96 JUMPI PUSH2 0xF95 PUSH2 0xEBB JUMP JUMPDEST JUMPDEST PUSH1 0x0 DUP7 ADD CALLDATALOAD PUSH8 0xFFFFFFFFFFFFFFFF DUP2 GT ISZERO PUSH2 0xFB4 JUMPI PUSH2 0xFB3 PUSH2 0xEC0 JUMP JUMPDEST JUMPDEST PUSH2 0xFC0 DUP9 DUP3 DUP10 ADD PUSH2 0xECA JUMP JUMPDEST SWAP6 POP POP PUSH1 0x20 PUSH2 0xFD1 DUP9 DUP3 DUP10 ADD PUSH2 0xF00 JUMP JUMPDEST SWAP5 POP POP PUSH1 0x40 PUSH2 0xFE2 DUP9 DUP3 DUP10 ADD PUSH2 0xF39 JUMP JUMPDEST SWAP4 POP POP PUSH1 0x60 PUSH2 0xFF3 DUP9 DUP3 DUP10 ADD PUSH2 0xF65 JUMP JUMPDEST SWAP3 POP POP PUSH1 0x80 PUSH2 0x1004 DUP9 DUP3 DUP10 ADD PUSH2 0xF65 JUMP JUMPDEST SWAP2 POP POP SWAP3 SWAP6 POP SWAP3 SWAP6 SWAP1 SWAP4 POP JUMP JUMPDEST PUSH1 0x0 PUSH1 0x20 DUP3 ADD SWAP1 POP PUSH2 0x1026 PUSH1 0x0 DUP4 ADD DUP5 PUSH2 0xD47 JUMP JUMPDEST SWAP3 SWAP2 POP POP JUMP JUMPDEST PUSH1 0x0 DUP2 ISZERO ISZERO SWAP1 POP SWAP2 SWAP1 POP JUMP JUMPDEST PUSH2 0x1041 DUP2 PUSH2 0x102C JUMP JUMPDEST DUP3 MSTORE POP POP JUMP JUMPDEST PUSH1 0x0 PUSH1 0x20 DUP3 ADD SWAP1 POP PUSH2 0x105C PUSH1 0x0 DUP4 ADD DUP5 PUSH2 0x1038 JUMP JUMPDEST SWAP3 SWAP2 POP POP JUMP JUMPDEST PUSH32 0x4E487B7100000000000000000000000000000000000000000000000000000000 PUSH1 0x0 MSTORE PUSH1 0x22 PUSH1 0x4 MSTORE PUSH1 0x24 PUSH1 0x0 REVERT JUMPDEST PUSH1 0x0 PUSH1 0x2 DUP3 DIV SWAP1 POP PUSH1 0x1 DUP3 AND DUP1 PUSH2 0x10A9 JUMPI PUSH1 0x7F DUP3 AND SWAP2 POP JUMPDEST PUSH1 0x20 DUP3 LT DUP2 SUB PUSH2 0x10BC JUMPI PUSH2 0x10BB PUSH2 0x1062 JUMP JUMPDEST JUMPDEST POP SWAP2 SWAP1 POP JUMP JUMPDEST PUSH32 0x4E487B7100000000000000000000000000000000000000000000000000000000 PUSH1 0x0 MSTORE PUSH1 0x41 PUSH1 0x4 MSTORE PUSH1 0x24 PUSH1 0x0 REVERT JUMPDEST PUSH32 0x494E56414C4944205349474E4154555245000000000000000000000000000000 PUSH1 0x0 DUP3 ADD MSTORE POP JUMP JUMPDEST PUSH1 0x0 PUSH2 0x1127 PUSH1 0x11 DUP4 PUSH2 0xC1A JUMP JUMPDEST SWAP2 POP PUSH2 0x1132 DUP3 PUSH2 0x10F1 JUMP JUMPDEST PUSH1 0x20 DUP3 ADD SWAP1 POP SWAP2 SWAP1 POP JUMP JUMPDEST PUSH1 0x0 PUSH1 0x20 DUP3 ADD SWAP1 POP DUP2 DUP2 SUB PUSH1 0x0 DUP4 ADD MSTORE PUSH2 0x1156 DUP2 PUSH2 0x111A JUMP JUMPDEST SWAP1 POP SWAP2 SWAP1 POP JUMP JUMPDEST PUSH32 0x444541444C494E4520484153204245454E205245414348454400000000000000 PUSH1 0x0 DUP3 ADD MSTORE POP JUMP JUMPDEST PUSH1 0x0 PUSH2 0x1193 PUSH1 0x19 DUP4 PUSH2 0xC1A JUMP JUMPDEST SWAP2 POP PUSH2 0x119E DUP3 PUSH2 0x115D JUMP JUMPDEST PUSH1 0x20 DUP3 ADD SWAP1 POP SWAP2 SWAP1 POP JUMP JUMPDEST PUSH1 0x0 PUSH1 0x20 DUP3 ADD SWAP1 POP DUP2 DUP2 SUB PUSH1 0x0 DUP4 ADD MSTORE PUSH2 0x11C2 DUP2 PUSH2 0x1186 JUMP JUMPDEST SWAP1 POP SWAP2 SWAP1 POP JUMP JUMPDEST PUSH1 0x0 DUP1 REVERT JUMPDEST PUSH1 0x0 DUP1 REVERT JUMPDEST PUSH1 0x0 DUP1 REVERT JUMPDEST PUSH1 0x0 DUP1 DUP4 CALLDATALOAD PUSH1 0x1 PUSH1 0x20 SUB DUP5 CALLDATASIZE SUB SUB DUP2 SLT PUSH2 0x11F5 JUMPI PUSH2 0x11F4 PUSH2 0x11C9 JUMP JUMPDEST JUMPDEST DUP1 DUP5 ADD SWAP3 POP DUP3 CALLDATALOAD SWAP2 POP PUSH8 0xFFFFFFFFFFFFFFFF DUP3 GT ISZERO PUSH2 0x1217 JUMPI PUSH2 0x1216 PUSH2 0x11CE JUMP JUMPDEST JUMPDEST PUSH1 0x20 DUP4 ADD SWAP3 POP PUSH1 0x1 DUP3 MUL CALLDATASIZE SUB DUP4 SGT ISZERO PUSH2 0x1233 JUMPI PUSH2 0x1232 PUSH2 0x11D3 JUMP JUMPDEST JUMPDEST POP SWAP3 POP SWAP3 SWAP1 POP JUMP JUMPDEST PUSH1 0x0 DUP3 SWAP1 POP SWAP3 SWAP2 POP POP JUMP JUMPDEST PUSH1 0x0 DUP2 SWAP1 POP DUP2 PUSH1 0x0 MSTORE PUSH1 0x20 PUSH1 0x0 KECCAK256 SWAP1 POP SWAP2 SWAP1 POP JUMP JUMPDEST PUSH1 0x0 PUSH1 0x20 PUSH1 0x1F DUP4 ADD DIV SWAP1 POP SWAP2 SWAP1 POP JUMP JUMPDEST PUSH1 0x0 DUP3 DUP3 SHL SWAP1 POP SWAP3 SWAP2 POP POP JUMP JUMPDEST PUSH1 0x0 PUSH1 0x8 DUP4 MUL PUSH2 0x12A8 PUSH32 0xFFFFFFFFFFFFFFFFFFFFFFFFFFFFFFFFFFFFFFFFFFFFFFFFFFFFFFFFFFFFFFFF DUP3 PUSH2 0x126B JUMP JUMPDEST PUSH2 0x12B2 DUP7 DUP4 PUSH2 0x126B JUMP JUMPDEST SWAP6 POP DUP1 NOT DUP5 AND SWAP4 POP DUP1 DUP7 AND DUP5 OR SWAP3 POP POP POP SWAP4 SWAP3 POP POP POP JUMP JUMPDEST PUSH1 0x0 DUP2 SWAP1 POP SWAP2 SWAP1 POP JUMP JUMPDEST PUSH1 0x0 PUSH2 0x12EF PUSH2 0x12EA PUSH2 0x12E5 DUP5 PUSH2 0xCFC JUMP JUMPDEST PUSH2 0x12CA JUMP JUMPDEST PUSH2 0xCFC JUMP JUMPDEST SWAP1 POP SWAP2 SWAP1 POP JUMP JUMPDEST PUSH1 0x0 DUP2 SWAP1 POP SWAP2 SWAP1 POP JUMP JUMPDEST PUSH2 0x1309 DUP4 PUSH2 0x12D4 JUMP JUMPDEST PUSH2 0x131D PUSH2 0x1315 DUP3 PUSH2 0x12F6 JUMP JUMPDEST DUP5 DUP5 SLOAD PUSH2 0x1278 JUMP JUMPDEST DUP3 SSTORE POP POP POP POP JUMP JUMPDEST PUSH1 0x0 SWAP1 JUMP JUMPDEST PUSH2 0x1332 PUSH2 0x1325 JUMP JUMPDEST PUSH2 0x133D DUP2 DUP5 DUP5 PUSH2 0x1300 JUMP JUMPDEST POP POP POP JUMP JUMPDEST JUMPDEST DUP2 DUP2 LT ISZERO PUSH2 0x1361 JUMPI PUSH2 0x1356 PUSH1 0x0 DUP3 PUSH2 0x132A JUMP JUMPDEST PUSH1 0x1 DUP2 ADD SWAP1 POP PUSH2 0x1343 JUMP JUMPDEST POP POP JUMP JUMPDEST PUSH1 0x1F DUP3 GT ISZERO PUSH2 0x13A6 JUMPI PUSH2 0x1377 DUP2 PUSH2 0x1246 JUMP JUMPDEST PUSH2 0x1380 DUP5 PUSH2 0x125B JUMP JUMPDEST DUP2 ADD PUSH1 0x20 DUP6 LT ISZERO PUSH2 0x138F JUMPI DUP2 SWAP1 POP JUMPDEST PUSH2 0x13A3 PUSH2 0x139B DUP6 PUSH2 0x125B JUMP JUMPDEST DUP4 ADD DUP3 PUSH2 0x1342 JUMP JUMPDEST POP POP JUMPDEST POP POP POP JUMP JUMPDEST PUSH1 0x0 DUP3 DUP3 SHR SWAP1 POP SWAP3 SWAP2 POP POP JUMP JUMPDEST PUSH1 0x0 PUSH2 0x13C9 PUSH1 0x0 NOT DUP5 PUSH1 0x8 MUL PUSH2 0x13AB JUMP JUMPDEST NOT DUP1 DUP4 AND SWAP2 POP POP SWAP3 SWAP2 POP POP JUMP JUMPDEST PUSH1 0x0 PUSH2 0x13E2 DUP4 DUP4 PUSH2 0x13B8 JUMP JUMPDEST SWAP2 POP DUP3 PUSH1 0x2 MUL DUP3 OR SWAP1 POP SWAP3 SWAP2 POP POP JUMP JUMPDEST PUSH2 0x13FC DUP4 DUP4 PUSH2 0x123B JUMP JUMPDEST PUSH8 0xFFFFFFFFFFFFFFFF DUP2 GT ISZERO PUSH2 0x1415 JUMPI PUSH2 0x1414 PUSH2 0x10C2 JUMP JUMPDEST JUMPDEST PUSH2 0x141F DUP3 SLOAD PUSH2 0x1091 JUMP JUMPDEST PUSH2 0x142A DUP3 DUP3 DUP6 PUSH2 0x1365 JUMP JUMPDEST PUSH1 0x0 PUSH1 0x1F DUP4 GT PUSH1 0x1 DUP2 EQ PUSH2 0x1459 JUMPI PUSH1 0x0 DUP5 ISZERO PUSH2 0x1447 JUMPI DUP3 DUP8 ADD CALLDATALOAD SWAP1 POP JUMPDEST PUSH2 0x1451 DUP6 DUP3 PUSH2 0x13D6 JUMP JUMPDEST DUP7 SSTORE POP PUSH2 0x14B9 JUMP JUMPDEST PUSH1 0x1F NOT DUP5 AND PUSH2 0x1467 DUP7 PUSH2 0x1246 JUMP JUMPDEST PUSH1 0x0 JUMPDEST DUP3 DUP2 LT ISZERO PUSH2 0x148F JUMPI DUP5 DUP10 ADD CALLDATALOAD DUP3 SSTORE PUSH1 0x1 DUP3 ADD SWAP2 POP PUSH1 0x20 DUP6 ADD SWAP5 POP PUSH1 0x20 DUP2 ADD SWAP1 POP PUSH2 0x146A JUMP JUMPDEST DUP7 DUP4 LT ISZERO PUSH2 0x14AC JUMPI DUP5 DUP10 ADD CALLDATALOAD PUSH2 0x14A8 PUSH1 0x1F DUP10 AND DUP3 PUSH2 0x13B8 JUMP JUMPDEST DUP4 SSTORE POP JUMPDEST PUSH1 0x1 PUSH1 0x2 DUP9 MUL ADD DUP9 SSTORE POP POP POP JUMPDEST POP POP POP POP POP POP POP JUMP JUMPDEST PUSH1 0x0 DUP2 SLOAD PUSH2 0x14CF DUP2 PUSH2 0x1091 JUMP JUMPDEST PUSH2 0x14D9 DUP2 DUP7 PUSH2 0xC1A JUMP JUMPDEST SWAP5 POP PUSH1 0x1 DUP3 AND PUSH1 0x0 DUP2 EQ PUSH2 0x14F4 JUMPI PUSH1 0x1 DUP2 EQ PUSH2 0x150A JUMPI PUSH2 0x153D JUMP JUMPDEST PUSH1 0xFF NOT DUP4 AND DUP7 MSTORE DUP2 ISZERO ISZERO PUSH1 0x20 MUL DUP7 ADD SWAP4 POP PUSH2 0x153D JUMP JUMPDEST PUSH2 0x1513 DUP6 PUSH2 0x1246 JUMP JUMPDEST PUSH1 0x0 JUMPDEST DUP4 DUP2 LT ISZERO PUSH2 0x1535 JUMPI DUP2 SLOAD DUP2 DUP10 ADD MSTORE PUSH1 0x1 DUP3 ADD SWAP2 POP PUSH1 0x20 DUP2 ADD SWAP1 POP PUSH2 0x1516 JUMP JUMPDEST DUP1 DUP9 ADD SWAP6 POP POP POP JUMPDEST POP POP POP SWAP3 SWAP2 POP POP JUMP JUMPDEST PUSH1 0x0 PUSH1 0x40 DUP3 ADD SWAP1 POP DUP2 DUP2 SUB PUSH1 0x0 DUP4 ADD MSTORE PUSH2 0x1560 DUP2 DUP6 PUSH2 0x14C2 JUMP JUMPDEST SWAP1 POP PUSH2 0x156F PUSH1 0x20 DUP4 ADD DUP5 PUSH2 0xD47 JUMP JUMPDEST SWAP4 SWAP3 POP POP POP JUMP JUMPDEST PUSH1 0x0 DUP1 REVERT JUMPDEST PUSH2 0x1584 DUP3 PUSH2 0xC55 JUMP JUMPDEST DUP2 ADD DUP2 DUP2 LT PUSH8 0xFFFFFFFFFFFFFFFF DUP3 GT OR ISZERO PUSH2 0x15A3 JUMPI PUSH2 0x15A2 PUSH2 0x10C2 JUMP JUMPDEST JUMPDEST DUP1 PUSH1 0x40 MSTORE POP POP POP JUMP JUMPDEST PUSH1 0x0 PUSH2 0x15B6 PUSH2 0xEB1 JUMP JUMPDEST SWAP1 POP PUSH2 0x15C2 DUP3 DUP3 PUSH2 0x157B JUMP JUMPDEST SWAP2 SWAP1 POP JUMP JUMPDEST PUSH1 0x0 DUP1 REVERT JUMPDEST PUSH1 0x0 DUP1 REVERT JUMPDEST PUSH1 0x0 DUP1 REVERT JUMPDEST PUSH1 0x0 PUSH8 0xFFFFFFFFFFFFFFFF DUP3 GT ISZERO PUSH2 0x15F1 JUMPI PUSH2 0x15F0 PUSH2 0x10C2 JUMP JUMPDEST JUMPDEST PUSH2 0x15FA DUP3 PUSH2 0xC55 JUMP JUMPDEST SWAP1 POP PUSH1 0x20 DUP2 ADD SWAP1 POP SWAP2 SWAP1 POP JUMP JUMPDEST DUP3 DUP2 DUP4 CALLDATACOPY PUSH1 0x0 DUP4 DUP4 ADD MSTORE POP POP POP JUMP JUMPDEST PUSH1 0x0 PUSH2 0x1629 PUSH2 0x1624 DUP5 PUSH2 0x15D6 JUMP JUMPDEST PUSH2 0x15AC JUMP JUMPDEST SWAP1 POP DUP3 DUP2 MSTORE PUSH1 0x20 DUP2 ADD DUP5 DUP5 DUP5 ADD GT ISZERO PUSH2 0x1645 JUMPI PUSH2 0x1644 PUSH2 0x15D1 JUMP JUMPDEST JUMPDEST PUSH2 0x1650 DUP5 DUP3 DUP6 PUSH2 0x1607 JUMP JUMPDEST POP SWAP4 SWAP3 POP POP POP JUMP JUMPDEST PUSH1 0x0 DUP3 PUSH1 0x1F DUP4 ADD SLT PUSH2 0x166D JUMPI PUSH2 0x166C PUSH2 0x15CC JUMP JUMPDEST JUMPDEST DUP2 CALLDATALOAD PUSH2 0x167D DUP5 DUP3 PUSH1 0x20 DUP7 ADD PUSH2 0x1616 JUMP JUMPDEST SWAP2 POP POP SWAP3 SWAP2 POP POP JUMP JUMPDEST PUSH2 0x168F DUP2 PUSH2 0xCFC JUMP JUMPDEST DUP2 EQ PUSH2 0x169A JUMPI PUSH1 0x0 DUP1 REVERT JUMPDEST POP JUMP JUMPDEST PUSH1 0x0 DUP2 CALLDATALOAD SWAP1 POP PUSH2 0x16AC DUP2 PUSH2 0x1686 JUMP JUMPDEST SWAP3 SWAP2 POP POP JUMP JUMPDEST PUSH1 0x0 PUSH1 0x40 DUP3 DUP5 SUB SLT ISZERO PUSH2 0x16C8 JUMPI PUSH2 0x16C7 PUSH2 0x1576 JUMP JUMPDEST JUMPDEST PUSH2 0x16D2 PUSH1 0x40 PUSH2 0x15AC JUMP JUMPDEST SWAP1 POP PUSH1 0x0 DUP3 ADD CALLDATALOAD PUSH8 0xFFFFFFFFFFFFFFFF DUP2 GT ISZERO PUSH2 0x16F2 JUMPI PUSH2 0x16F1 PUSH2 0x15C7 JUMP JUMPDEST JUMPDEST PUSH2 0x16FE DUP5 DUP3 DUP6 ADD PUSH2 0x1658 JUMP JUMPDEST PUSH1 0x0 DUP4 ADD MSTORE POP PUSH1 0x20 PUSH2 0x1712 DUP5 DUP3 DUP6 ADD PUSH2 0x169D JUMP JUMPDEST PUSH1 0x20 DUP4 ADD MSTORE POP SWAP3 SWAP2 POP POP JUMP JUMPDEST PUSH1 0x0 PUSH2 0x172A CALLDATASIZE DUP4 PUSH2 0x16B2 JUMP JUMPDEST SWAP1 POP SWAP2 SWAP1 POP JUMP JUMPDEST PUSH1 0x0 PUSH1 0x60 DUP3 ADD SWAP1 POP PUSH2 0x1746 PUSH1 0x0 DUP4 ADD DUP7 PUSH2 0xD60 JUMP JUMPDEST PUSH2 0x1753 PUSH1 0x20 DUP4 ADD DUP6 PUSH2 0xD60 JUMP JUMPDEST PUSH2 0x1760 PUSH1 0x40 DUP4 ADD DUP5 PUSH2 0xD06 JUMP JUMPDEST SWAP5 SWAP4 POP POP POP POP JUMP JUMPDEST PUSH1 0x0 PUSH1 0x40 DUP3 ADD SWAP1 POP DUP2 DUP2 SUB PUSH1 0x0 DUP4 ADD MSTORE PUSH2 0x1782 DUP2 DUP6 PUSH2 0xC66 JUMP JUMPDEST SWAP1 POP PUSH2 0x1791 PUSH1 0x20 DUP4 ADD DUP5 PUSH2 0xD47 JUMP JUMPDEST SWAP4 SWAP3 POP POP POP JUMP JUMPDEST PUSH2 0x17A1 DUP2 PUSH2 0xF15 JUMP JUMPDEST DUP3 MSTORE POP POP JUMP JUMPDEST PUSH1 0x0 PUSH1 0x80 DUP3 ADD SWAP1 POP PUSH2 0x17BC PUSH1 0x0 DUP4 ADD DUP8 PUSH2 0xD60 JUMP JUMPDEST PUSH2 0x17C9 PUSH1 0x20 DUP4 ADD DUP7 PUSH2 0x1798 JUMP JUMPDEST PUSH2 0x17D6 PUSH1 0x40 DUP4 ADD DUP6 PUSH2 0xD60 JUMP JUMPDEST PUSH2 0x17E3 PUSH1 0x60 DUP4 ADD DUP5 PUSH2 0xD60 JUMP JUMPDEST SWAP6 SWAP5 POP POP POP POP POP JUMP JUMPDEST PUSH32 0x4E487B7100000000000000000000000000000000000000000000000000000000 PUSH1 0x0 MSTORE PUSH1 0x21 PUSH1 0x4 MSTORE PUSH1 0x24 PUSH1 0x0 REVERT JUMPDEST PUSH1 0x0 PUSH1 0x20 DUP3 ADD SWAP1 POP PUSH2 0x1830 PUSH1 0x0 DUP4 ADD DUP5 PUSH2 0xD06 JUMP JUMPDEST SWAP3 SWAP2 POP POP JUMP JUMPDEST PUSH1 0x0 PUSH1 0x20 DUP3 ADD SWAP1 POP PUSH2 0x184B PUSH1 0x0 DUP4 ADD DUP5 PUSH2 0xD60 JUMP JUMPDEST SWAP3 SWAP2 POP POP JUMP JUMPDEST PUSH1 0x0 PUSH1 0xA0 DUP3 ADD SWAP1 POP PUSH2 0x1866 PUSH1 0x0 DUP4 ADD DUP9 PUSH2 0xD60 JUMP JUMPDEST PUSH2 0x1873 PUSH1 0x20 DUP4 ADD DUP8 PUSH2 0xD60 JUMP JUMPDEST PUSH2 0x1880 PUSH1 0x40 DUP4 ADD DUP7 PUSH2 0xD60 JUMP JUMPDEST PUSH2 0x188D PUSH1 0x60 DUP4 ADD DUP6 PUSH2 0xD06 JUMP JUMPDEST PUSH2 0x189A PUSH1 0x80 DUP4 ADD DUP5 PUSH2 0xD47 JUMP JUMPDEST SWAP7 SWAP6 POP POP POP POP POP POP JUMP JUMPDEST PUSH32 0x4E487B7100000000000000000000000000000000000000000000000000000000 PUSH1 0x0 MSTORE PUSH1 0x51 PUSH1 0x4 MSTORE PUSH1 0x24 PUSH1 0x0 REVERT INVALID LOG2 PUSH5 0x6970667358 0x22 SLT KECCAK256 0xD3 0xDA SWAP12 MOD DELEGATECALL 0xE6 0xA5 0xD9 SAR PUSH11 0x5FA7E6ED2DD5850A1AFAB DELEGATECALL SLOAD PUSH16 0x83E09AA9513D7F4F64736F6C63430008 XOR STOP CALLER "},"methodIdentifiers":{"eip712Domain()":"84b0196e","message((string,uint256),address,uint8,bytes32,bytes32)":"887c0036","messageSender()":"d67bdd25","textMessage()":"1c50eed5","verifyMessage((string,uint256),address,uint8,bytes32,bytes32)":"dd26fe92"}}}}}