{
  "_format": "hh-sol-artifact-1",
  "contractName": "Messager",
  "sourceName": "contracts/Messager.sol",
  "abi": [
    {
      "inputs": [],
      "stateMutability": "nonpayable",
      "type": "constructor"
    },
    {
      "inputs": [],
      "name": "ECDSAInvalidSignature",
      "type": "error"
    },
    {
      "inputs": [
        {
          "internalType": "uint256",
          "name": "length",
          "type": "uint256"
        }
      ],
      "name": "ECDSAInvalidSignatureLength",
      "type": "error"
    },
    {
      "inputs": [
        {
          "internalType": "bytes32",
          "name": "s",
          "type": "bytes32"
        }
      ],
      "name": "ECDSAInvalidSignatureS",
      "type": "error"
    },
    {
      "inputs": [],
      "name": "InvalidShortString",
      "type": "error"
    },
    {
      "inputs": [
        {
          "internalType": "string",
          "name": "str",
          "type": "string"
        }
      ],
      "name": "StringTooLong",
      "type": "error"
    },
    {
      "anonymous": false,
      "inputs": [],
      "name": "EIP712DomainChanged",
      "type": "event"
    },
    {
      "anonymous": false,
      "inputs": [
        {
          "indexed": false,
          "internalType": "string",
          "name": "text",
          "type": "string"
        },
        {
          "indexed": false,
          "internalType": "address",
          "name": "sender",
          "type": "address"
        }
      ],
      "name": "MessageChanged",
      "type": "event"
    },
    {
      "inputs": [],
      "name": "eip712Domain",
      "outputs": [
        {
          "internalType": "bytes1",
          "name": "fields",
          "type": "bytes1"
        },
        {
          "internalType": "string",
          "name": "name",
          "type": "string"
        },
        {
          "internalType": "string",
          "name": "version",
          "type": "string"
        },
        {
          "internalType": "uint256",
          "name": "chainId",
          "type": "uint256"
        },
        {
          "internalType": "address",
          "name": "verifyingContract",
          "type": "address"
        },
        {
          "internalType": "bytes32",
          "name": "salt",
          "type": "bytes32"
        },
        {
          "internalType": "uint256[]",
          "name": "extensions",
          "type": "uint256[]"
        }
      ],
      "stateMutability": "view",
      "type": "function"
    },
    {
      "inputs": [
        {
          "components": [
            {
              "internalType": "string",
              "name": "text",
              "type": "string"
            },
            {
              "internalType": "uint256",
              "name": "deadline",
              "type": "uint256"
            }
          ],
          "internalType": "struct Messager.MessageStruct",
          "name": "messageStruct",
          "type": "tuple"
        },
        {
          "internalType": "address",
          "name": "sender",
          "type": "address"
        },
        {
          "internalType": "bytes",
          "name": "signature",
          "type": "bytes"
        }
      ],
      "name": "message",
      "outputs": [],
      "stateMutability": "nonpayable",
      "type": "function"
    },
    {
      "inputs": [],
      "name": "messageSender",
      "outputs": [
        {
          "internalType": "address",
          "name": "",
          "type": "address"
        }
      ],
      "stateMutability": "view",
      "type": "function"
    },
    {
      "inputs": [],
      "name": "textMessage",
      "outputs": [
        {
          "internalType": "string",
          "name": "",
          "type": "string"
        }
      ],
      "stateMutability": "view",
      "type": "function"
    },
    {
      "inputs": [
        {
          "components": [
            {
              "internalType": "string",
              "name": "text",
              "type": "string"
            },
            {
              "internalType": "uint256",
              "name": "deadline",
              "type": "uint256"
            }
          ],
          "internalType": "struct Messager.MessageStruct",
          "name": "messageStruct",
          "type": "tuple"
        },
        {
          "internalType": "address",
          "name": "sender",
          "type": "address"
        },
        {
          "internalType": "bytes",
          "name": "signature",
          "type": "bytes"
        }
      ],
      "name": "verifyMessage",
      "outputs": [
        {
          "internalType": "bool",
          "name": "",
          "type": "bool"
        }
      ],
      "stateMutability": "view",
      "type": "function"
    }
  ],
  "bytecode": "0x6101806040526040518060400160405280600c81526020017f48656c6c6f20576f726c64210000000000000000000000000000000000000000815250600290816200004b91906200054a565b507fff68792d44a8d6b8489c8bf05a98afb27ffcee59ff7fe51e62e896e3ab56e7ee610160908152503480156200008157600080fd5b506040518060400160405280600881526020017f4d657373616765720000000000000000000000000000000000000000000000008152506040518060400160405280600181526020017f310000000000000000000000000000000000000000000000000000000000000081525062000104600083620001a460201b90919060201c565b610120818152505062000122600182620001a460201b90919060201c565b6101408181525050818051906020012060e08181525050808051906020012061010081815250504660a0818152505062000161620001fc60201b60201c565b608081815250503073ffffffffffffffffffffffffffffffffffffffff1660c08173ffffffffffffffffffffffffffffffffffffffff1681525050505062000854565b6000602083511015620001ca57620001c2836200025960201b60201c565b9050620001f6565b82620001dc83620002c660201b60201c565b6000019081620001ed91906200054a565b5060ff60001b90505b92915050565b60007f8b73c3c69bb8fe3d512ecc4cf759cc79239f7b179b0ffacaa9a75d522b39400f60e0516101005146306040516020016200023e959493929190620006a2565b60405160208183030381529060405280519060200120905090565b600080829050601f81511115620002a957826040517f305a27a9000000000000000000000000000000000000000000000000000000008152600401620002a091906200078e565b60405180910390fd5b805181620002b790620007e4565b60001c1760001b915050919050565b6000819050919050565b600081519050919050565b7f4e487b7100000000000000000000000000000000000000000000000000000000600052604160045260246000fd5b7f4e487b7100000000000000000000000000000000000000000000000000000000600052602260045260246000fd5b600060028204905060018216806200035257607f821691505b6020821081036200036857620003676200030a565b5b50919050565b60008190508160005260206000209050919050565b60006020601f8301049050919050565b600082821b905092915050565b600060088302620003d27fffffffffffffffffffffffffffffffffffffffffffffffffffffffffffffffff8262000393565b620003de868362000393565b95508019841693508086168417925050509392505050565b6000819050919050565b6000819050919050565b60006200042b620004256200041f84620003f6565b62000400565b620003f6565b9050919050565b6000819050919050565b62000447836200040a565b6200045f620004568262000432565b848454620003a0565b825550505050565b600090565b6200047662000467565b620004838184846200043c565b505050565b5b81811015620004ab576200049f6000826200046c565b60018101905062000489565b5050565b601f821115620004fa57620004c4816200036e565b620004cf8462000383565b81016020851015620004df578190505b620004f7620004ee8562000383565b83018262000488565b50505b505050565b600082821c905092915050565b60006200051f60001984600802620004ff565b1980831691505092915050565b60006200053a83836200050c565b9150826002028217905092915050565b6200055582620002d0565b67ffffffffffffffff811115620005715762000570620002db565b5b6200057d825462000339565b6200058a828285620004af565b600060209050601f831160018114620005c25760008415620005ad578287015190505b620005b985826200052c565b86555062000629565b601f198416620005d2866200036e565b60005b82811015620005fc57848901518255600182019150602085019450602081019050620005d5565b868310156200061c578489015162000618601f8916826200050c565b8355505b6001600288020188555050505b505050505050565b6000819050919050565b620006468162000631565b82525050565b6200065781620003f6565b82525050565b600073ffffffffffffffffffffffffffffffffffffffff82169050919050565b60006200068a826200065d565b9050919050565b6200069c816200067d565b82525050565b600060a082019050620006b960008301886200063b565b620006c860208301876200063b565b620006d760408301866200063b565b620006e660608301856200064c565b620006f5608083018462000691565b9695505050505050565b600082825260208201905092915050565b60005b838110156200073057808201518184015260208101905062000713565b60008484015250505050565b6000601f19601f8301169050919050565b60006200075a82620002d0565b620007668185620006ff565b93506200077881856020860162000710565b62000783816200073c565b840191505092915050565b60006020820190508181036000830152620007aa81846200074d565b905092915050565b600081519050919050565b6000819050602082019050919050565b6000620007db825162000631565b80915050919050565b6000620007f182620007b2565b82620007fd84620007bd565b90506200080a81620007cd565b925060208210156200084d57620008487fffffffffffffffffffffffffffffffffffffffffffffffffffffffffffffffff8360200360080262000393565b831692505b5050919050565b60805160a05160c05160e05161010051610120516101405161016051611996620008ba60003960006104a201526000610627015260006105ec01526000610a2101526000610a000152600061065d015260006106b3015260006106dc01526119966000f3fe608060405234801561001057600080fd5b50600436106100575760003560e01c80631c4a851e1461005c5780631c50eed51461008c5780632c772434146100aa57806384b0196e146100c6578063d67bdd25146100ea575b600080fd5b61007660048036038101906100719190610e3b565b610108565b6040516100839190610ee1565b60405180910390f35b6100946101ed565b6040516100a19190610f7b565b60405180910390f35b6100c460048036038101906100bf9190610e3b565b61027b565b005b6100ce6103ce565b6040516100e197969594939291906110d7565b60405180910390f35b6100f2610478565b6040516100ff919061115b565b60405180910390f35b6000806101256101208661011b906112b9565b61049e565b610501565b90506000610133828561051b565b90506101746040518060400160405280601581526020017f5265636f766572656420616464726573733a202573000000000000000000000081525082610547565b6101b36040518060400160405280601281526020017f53656e64657220616464726573733a202573000000000000000000000000000081525086610547565b8473ffffffffffffffffffffffffffffffffffffffff168173ffffffffffffffffffffffffffffffffffffffff1614925050509392505050565b600280546101fa906112fb565b80601f0160208091040260200160405190810160405280929190818152602001828054610226906112fb565b80156102735780601f1061024857610100808354040283529160200191610273565b820191906000526020600020905b81548152906001019060200180831161025657829003601f168201915b505050505081565b610286838383610108565b6102c5576040517f08c379a00000000000000000000000000000000000000000000000000000000081526004016102bc90611378565b60405180910390fd5b826020013542111561030c576040517f08c379a0000000000000000000000000000000000000000000000000000000008152600401610303906113e4565b60405180910390fd5b82806000019061031c9190611413565b6002918261032b92919061162d565b5081600360006101000a81548173ffffffffffffffffffffffffffffffffffffffff021916908373ffffffffffffffffffffffffffffffffffffffff1602179055507ffe805c34be9e63a416b9aba99c6c62782dafb9620895945675bbbe5131aeb1a16002600360009054906101000a900473ffffffffffffffffffffffffffffffffffffffff166040516103c1929190611781565b60405180910390a1505050565b6000606080600080600060606103e26105e3565b6103ea61061e565b46306000801b600067ffffffffffffffff81111561040b5761040a610d10565b5b6040519080825280602002602001820160405280156104395781602001602082028036833780820191505090505b507f0f00000000000000000000000000000000000000000000000000000000000000959493929190965096509650965096509650965090919293949596565b600360009054906101000a900473ffffffffffffffffffffffffffffffffffffffff1681565b60007f000000000000000000000000000000000000000000000000000000000000000082600001518051906020012083602001516040516020016104e4939291906117b1565b604051602081830303815290604052805190602001209050919050565b600061051461050e610659565b83610710565b9050919050565b60008060008061052b8686610751565b92509250925061053b82826107ad565b82935050505092915050565b6105df828260405160240161055d9291906117e8565b6040516020818303038152906040527f319af333000000000000000000000000000000000000000000000000000000007bffffffffffffffffffffffffffffffffffffffffffffffffffffffff19166020820180517bffffffffffffffffffffffffffffffffffffffffffffffffffffffff8381831617835250505050610911565b5050565b606061061960007f000000000000000000000000000000000000000000000000000000000000000061092b90919063ffffffff16565b905090565b606061065460017f000000000000000000000000000000000000000000000000000000000000000061092b90919063ffffffff16565b905090565b60007f000000000000000000000000000000000000000000000000000000000000000073ffffffffffffffffffffffffffffffffffffffff163073ffffffffffffffffffffffffffffffffffffffff161480156106d557507f000000000000000000000000000000000000000000000000000000000000000046145b15610702577f0000000000000000000000000000000000000000000000000000000000000000905061070d565b61070a6109db565b90505b90565b60006040517f190100000000000000000000000000000000000000000000000000000000000081528360028201528260228201526042812091505092915050565b600080600060418451036107965760008060006020870151925060408701519150606087015160001a905061078888828585610a71565b9550955095505050506107a6565b60006002855160001b9250925092505b9250925092565b600060038111156107c1576107c0611818565b5b8260038111156107d4576107d3611818565b5b031561090d57600160038111156107ee576107ed611818565b5b82600381111561080157610800611818565b5b03610838576040517ff645eedf00000000000000000000000000000000000000000000000000000000815260040160405180910390fd5b6002600381111561084c5761084b611818565b5b82600381111561085f5761085e611818565b5b036108a4578060001c6040517ffce698f700000000000000000000000000000000000000000000000000000000815260040161089b9190611847565b60405180910390fd5b6003808111156108b7576108b6611818565b5b8260038111156108ca576108c9611818565b5b0361090c57806040517fd78bce0c0000000000000000000000000000000000000000000000000000000081526004016109039190611862565b60405180910390fd5b5b5050565b61092881610920610b65610b86565b63ffffffff16565b50565b606060ff60001b83146109485761094183610b91565b90506109d5565b818054610954906112fb565b80601f0160208091040260200160405190810160405280929190818152602001828054610980906112fb565b80156109cd5780601f106109a2576101008083540402835291602001916109cd565b820191906000526020600020905b8154815290600101906020018083116109b057829003601f168201915b505050505090505b92915050565b60007f8b73c3c69bb8fe3d512ecc4cf759cc79239f7b179b0ffacaa9a75d522b39400f7f00000000000000000000000000000000000000000000000000000000000000007f00000000000000000000000000000000000000000000000000000000000000004630604051602001610a5695949392919061187d565b60405160208183030381529060405280519060200120905090565b60008060007f7fffffffffffffffffffffffffffffff5d576e7357a4501ddfe92f46681b20a08460001c1115610ab1576000600385925092509250610b5b565b600060018888888860405160008152602001604052604051610ad694939291906118ec565b6020604051602081039080840390855afa158015610af8573d6000803e3d6000fd5b505050602060405103519050600073ffffffffffffffffffffffffffffffffffffffff168173ffffffffffffffffffffffffffffffffffffffff1603610b4c57600060016000801b93509350935050610b5b565b8060008060001b935093509350505b9450945094915050565b60006a636f6e736f6c652e6c6f679050600080835160208501845afa505050565b610c55819050919050565b60606000610b9e83610c05565b90506000602067ffffffffffffffff811115610bbd57610bbc610d10565b5b6040519080825280601f01601f191660200182016040528015610bef5781602001600182028036833780820191505090505b5090508181528360208201528092505050919050565b60008060ff8360001c169050601f811115610c4c576040517fb3512b0c00000000000000000000000000000000000000000000000000000000815260040160405180910390fd5b80915050919050565b610c5d611931565b565b6000604051905090565b600080fd5b600080fd5b600080fd5b600060408284031215610c8e57610c8d610c73565b5b81905092915050565b600073ffffffffffffffffffffffffffffffffffffffff82169050919050565b6000610cc282610c97565b9050919050565b610cd281610cb7565b8114610cdd57600080fd5b50565b600081359050610cef81610cc9565b92915050565b600080fd5b600080fd5b6000601f19601f8301169050919050565b7f4e487b7100000000000000000000000000000000000000000000000000000000600052604160045260246000fd5b610d4882610cff565b810181811067ffffffffffffffff82111715610d6757610d66610d10565b5b80604052505050565b6000610d7a610c5f565b9050610d868282610d3f565b919050565b600067ffffffffffffffff821115610da657610da5610d10565b5b610daf82610cff565b9050602081019050919050565b82818337600083830152505050565b6000610dde610dd984610d8b565b610d70565b905082815260208101848484011115610dfa57610df9610cfa565b5b610e05848285610dbc565b509392505050565b600082601f830112610e2257610e21610cf5565b5b8135610e32848260208601610dcb565b91505092915050565b600080600060608486031215610e5457610e53610c69565b5b600084013567ffffffffffffffff811115610e7257610e71610c6e565b5b610e7e86828701610c78565b9350506020610e8f86828701610ce0565b925050604084013567ffffffffffffffff811115610eb057610eaf610c6e565b5b610ebc86828701610e0d565b9150509250925092565b60008115159050919050565b610edb81610ec6565b82525050565b6000602082019050610ef66000830184610ed2565b92915050565b600081519050919050565b600082825260208201905092915050565b60005b83811015610f36578082015181840152602081019050610f1b565b60008484015250505050565b6000610f4d82610efc565b610f578185610f07565b9350610f67818560208601610f18565b610f7081610cff565b840191505092915050565b60006020820190508181036000830152610f958184610f42565b905092915050565b60007fff0000000000000000000000000000000000000000000000000000000000000082169050919050565b610fd281610f9d565b82525050565b6000819050919050565b610feb81610fd8565b82525050565b610ffa81610cb7565b82525050565b6000819050919050565b61101381611000565b82525050565b600081519050919050565b600082825260208201905092915050565b6000819050602082019050919050565b61104e81610fd8565b82525050565b60006110608383611045565b60208301905092915050565b6000602082019050919050565b600061108482611019565b61108e8185611024565b935061109983611035565b8060005b838110156110ca5781516110b18882611054565b97506110bc8361106c565b92505060018101905061109d565b5085935050505092915050565b600060e0820190506110ec600083018a610fc9565b81810360208301526110fe8189610f42565b905081810360408301526111128188610f42565b90506111216060830187610fe2565b61112e6080830186610ff1565b61113b60a083018561100a565b81810360c083015261114d8184611079565b905098975050505050505050565b60006020820190506111706000830184610ff1565b92915050565b600080fd5b600080fd5b600067ffffffffffffffff82111561119b5761119a610d10565b5b6111a482610cff565b9050602081019050919050565b60006111c46111bf84611180565b610d70565b9050828152602081018484840111156111e0576111df610cfa565b5b6111eb848285610dbc565b509392505050565b600082601f83011261120857611207610cf5565b5b81356112188482602086016111b1565b91505092915050565b61122a81610fd8565b811461123557600080fd5b50565b60008135905061124781611221565b92915050565b60006040828403121561126357611262611176565b5b61126d6040610d70565b9050600082013567ffffffffffffffff81111561128d5761128c61117b565b5b611299848285016111f3565b60008301525060206112ad84828501611238565b60208301525092915050565b60006112c5368361124d565b9050919050565b7f4e487b7100000000000000000000000000000000000000000000000000000000600052602260045260246000fd5b6000600282049050600182168061131357607f821691505b602082108103611326576113256112cc565b5b50919050565b7f5349474e415455524520444f4553204e4f54204d415443480000000000000000600082015250565b6000611362601883610f07565b915061136d8261132c565b602082019050919050565b6000602082019050818103600083015261139181611355565b9050919050565b7f444541444c494e4520484153204245454e205245414348454400000000000000600082015250565b60006113ce601983610f07565b91506113d982611398565b602082019050919050565b600060208201905081810360008301526113fd816113c1565b9050919050565b600080fd5b600080fd5b600080fd5b600080833560016020038436030381126114305761142f611404565b5b80840192508235915067ffffffffffffffff82111561145257611451611409565b5b60208301925060018202360383131561146e5761146d61140e565b5b509250929050565b600082905092915050565b60008190508160005260206000209050919050565b60006020601f8301049050919050565b600082821b905092915050565b6000600883026114e37fffffffffffffffffffffffffffffffffffffffffffffffffffffffffffffffff826114a6565b6114ed86836114a6565b95508019841693508086168417925050509392505050565b6000819050919050565b600061152a61152561152084610fd8565b611505565b610fd8565b9050919050565b6000819050919050565b6115448361150f565b61155861155082611531565b8484546114b3565b825550505050565b600090565b61156d611560565b61157881848461153b565b505050565b5b8181101561159c57611591600082611565565b60018101905061157e565b5050565b601f8211156115e1576115b281611481565b6115bb84611496565b810160208510156115ca578190505b6115de6115d685611496565b83018261157d565b50505b505050565b600082821c905092915050565b6000611604600019846008026115e6565b1980831691505092915050565b600061161d83836115f3565b9150826002028217905092915050565b6116378383611476565b67ffffffffffffffff8111156116505761164f610d10565b5b61165a82546112fb565b6116658282856115a0565b6000601f8311600181146116945760008415611682578287013590505b61168c8582611611565b8655506116f4565b601f1984166116a286611481565b60005b828110156116ca578489013582556001820191506020850194506020810190506116a5565b868310156116e757848901356116e3601f8916826115f3565b8355505b6001600288020188555050505b50505050505050565b6000815461170a816112fb565b6117148186610f07565b9450600182166000811461172f576001811461174557611778565b60ff198316865281151560200286019350611778565b61174e85611481565b60005b8381101561177057815481890152600182019150602081019050611751565b808801955050505b50505092915050565b6000604082019050818103600083015261179b81856116fd565b90506117aa6020830184610ff1565b9392505050565b60006060820190506117c6600083018661100a565b6117d3602083018561100a565b6117e06040830184610fe2565b949350505050565b600060408201905081810360008301526118028185610f42565b90506118116020830184610ff1565b9392505050565b7f4e487b7100000000000000000000000000000000000000000000000000000000600052602160045260246000fd5b600060208201905061185c6000830184610fe2565b92915050565b6000602082019050611877600083018461100a565b92915050565b600060a082019050611892600083018861100a565b61189f602083018761100a565b6118ac604083018661100a565b6118b96060830185610fe2565b6118c66080830184610ff1565b9695505050505050565b600060ff82169050919050565b6118e6816118d0565b82525050565b6000608082019050611901600083018761100a565b61190e60208301866118dd565b61191b604083018561100a565b611928606083018461100a565b95945050505050565b7f4e487b7100000000000000000000000000000000000000000000000000000000600052605160045260246000fdfea2646970667358221220ff3aa6434d8d8d663c07700beb0aa96e548e8234258b7fa2e5cb01ff57eeb19b64736f6c63430008180033",
  "linkReferences": {},
  "deployedLinkReferences": {}
}