{
  "_format": "hh-sol-artifact-1",
  "contractName": "Messager",
  "sourceName": "contracts/Messager.sol",
  "abi": [
    {
      "inputs": [],
      "stateMutability": "nonpayable",
      "type": "constructor"
    },
    {
      "inputs": [],
      "name": "ECDSAInvalidSignature",
      "type": "error"
    },
    {
      "inputs": [
        {
          "internalType": "uint256",
          "name": "length",
          "type": "uint256"
        }
      ],
      "name": "ECDSAInvalidSignatureLength",
      "type": "error"
    },
    {
      "inputs": [
        {
          "internalType": "bytes32",
          "name": "s",
          "type": "bytes32"
        }
      ],
      "name": "ECDSAInvalidSignatureS",
      "type": "error"
    },
    {
      "inputs": [],
      "name": "InvalidShortString",
      "type": "error"
    },
    {
      "inputs": [
        {
          "internalType": "string",
          "name": "str",
          "type": "string"
        }
      ],
      "name": "StringTooLong",
      "type": "error"
    },
    {
      "anonymous": false,
      "inputs": [],
      "name": "EIP712DomainChanged",
      "type": "event"
    },
    {
      "anonymous": false,
      "inputs": [
        {
          "indexed": false,
          "internalType": "string",
          "name": "text",
          "type": "string"
        },
        {
          "indexed": false,
          "internalType": "address",
          "name": "sender",
          "type": "address"
        }
      ],
      "name": "MessageChanged",
      "type": "event"
    },
    {
      "inputs": [],
      "name": "eip712Domain",
      "outputs": [
        {
          "internalType": "bytes1",
          "name": "fields",
          "type": "bytes1"
        },
        {
          "internalType": "string",
          "name": "name",
          "type": "string"
        },
        {
          "internalType": "string",
          "name": "version",
          "type": "string"
        },
        {
          "internalType": "uint256",
          "name": "chainId",
          "type": "uint256"
        },
        {
          "internalType": "address",
          "name": "verifyingContract",
          "type": "address"
        },
        {
          "internalType": "bytes32",
          "name": "salt",
          "type": "bytes32"
        },
        {
          "internalType": "uint256[]",
          "name": "extensions",
          "type": "uint256[]"
        }
      ],
      "stateMutability": "view",
      "type": "function"
    },
    {
      "inputs": [
        {
          "components": [
            {
              "internalType": "string",
              "name": "text",
              "type": "string"
            },
            {
              "internalType": "uint256",
              "name": "deadline",
              "type": "uint256"
            }
          ],
          "internalType": "struct Messager.MessageStruct",
          "name": "messageStruct",
          "type": "tuple"
        },
        {
          "internalType": "address",
          "name": "sender",
          "type": "address"
        },
        {
          "internalType": "uint8",
          "name": "v",
          "type": "uint8"
        },
        {
          "internalType": "bytes32",
          "name": "r",
          "type": "bytes32"
        },
        {
          "internalType": "bytes32",
          "name": "s",
          "type": "bytes32"
        }
      ],
      "name": "message",
      "outputs": [],
      "stateMutability": "nonpayable",
      "type": "function"
    },
    {
      "inputs": [],
      "name": "messageSender",
      "outputs": [
        {
          "internalType": "address",
          "name": "",
          "type": "address"
        }
      ],
      "stateMutability": "view",
      "type": "function"
    },
    {
      "inputs": [],
      "name": "textMessage",
      "outputs": [
        {
          "internalType": "string",
          "name": "",
          "type": "string"
        }
      ],
      "stateMutability": "view",
      "type": "function"
    },
    {
      "inputs": [
        {
          "components": [
            {
              "internalType": "string",
              "name": "text",
              "type": "string"
            },
            {
              "internalType": "uint256",
              "name": "deadline",
              "type": "uint256"
            }
          ],
          "internalType": "struct Messager.MessageStruct",
          "name": "messageStruct",
          "type": "tuple"
        },
        {
          "internalType": "address",
          "name": "sender",
          "type": "address"
        },
        {
          "internalType": "uint8",
          "name": "v",
          "type": "uint8"
        },
        {
          "internalType": "bytes32",
          "name": "r",
          "type": "bytes32"
        },
        {
          "internalType": "bytes32",
          "name": "s",
          "type": "bytes32"
        }
      ],
      "name": "verifyMessage",
      "outputs": [
        {
          "internalType": "bool",
          "name": "",
          "type": "bool"
        }
      ],
      "stateMutability": "view",
      "type": "function"
    }
  ],
  "bytecode": "0x6101606040526040518060400160405280600c81526020017f48656c6c6f20576f726c64210000000000000000000000000000000000000000815250600290816200004b919062000679565b503480156200005957600080fd5b506040518060400160405280600881526020017f4d657373616765720000000000000000000000000000000000000000000000008152506040518060400160405280600181526020017f3100000000000000000000000000000000000000000000000000000000000000815250620000dc600083620001c360201b90919060201c565b6101208181525050620000fa600182620001c360201b90919060201c565b6101408181525050818051906020012060e08181525050808051906020012061010081815250504660a08181525050620001396200021b60201b60201c565b608081815250503073ffffffffffffffffffffffffffffffffffffffff1660c08173ffffffffffffffffffffffffffffffffffffffff16815250505050620001bd6040518060400160405280600c81526020017f436861696e2049443a2025730000000000000000000000000000000000000000815250466200027860201b60201c565b620009e6565b6000602083511015620001e957620001e1836200031e60201b60201c565b905062000215565b82620001fb836200038b60201b60201c565b60000190816200020c919062000679565b5060ff60001b90505b92915050565b60007f8b73c3c69bb8fe3d512ecc4cf759cc79239f7b179b0ffacaa9a75d522b39400f60e0516101005146306040516020016200025d959493929190620007d1565b60405160208183030381529060405280519060200120905090565b6200031a828260405160240162000291929190620008bd565b6040516020818303038152906040527fb60e72cc000000000000000000000000000000000000000000000000000000007bffffffffffffffffffffffffffffffffffffffffffffffffffffffff19166020820180517bffffffffffffffffffffffffffffffffffffffffffffffffffffffff83818316178352505050506200039560201b60201c565b5050565b600080829050601f815111156200036e57826040517f305a27a9000000000000000000000000000000000000000000000000000000008152600401620003659190620008f1565b60405180910390fd5b8051816200037c9062000947565b60001c1760001b915050919050565b6000819050919050565b620003bb81620003b6620003be60201b620004a617620003df60201b60201c565b60201c565b50565b60006a636f6e736f6c652e6c6f679050600080835160208501845afa505050565b620003f360201b62000c0517819050919050565b620003fd620009b7565b565b600081519050919050565b7f4e487b7100000000000000000000000000000000000000000000000000000000600052604160045260246000fd5b7f4e487b7100000000000000000000000000000000000000000000000000000000600052602260045260246000fd5b600060028204905060018216806200048157607f821691505b60208210810362000497576200049662000439565b5b50919050565b60008190508160005260206000209050919050565b60006020601f8301049050919050565b600082821b905092915050565b600060088302620005017fffffffffffffffffffffffffffffffffffffffffffffffffffffffffffffffff82620004c2565b6200050d8683620004c2565b95508019841693508086168417925050509392505050565b6000819050919050565b6000819050919050565b60006200055a620005546200054e8462000525565b6200052f565b62000525565b9050919050565b6000819050919050565b620005768362000539565b6200058e620005858262000561565b848454620004cf565b825550505050565b600090565b620005a562000596565b620005b28184846200056b565b505050565b5b81811015620005da57620005ce6000826200059b565b600181019050620005b8565b5050565b601f8211156200062957620005f3816200049d565b620005fe84620004b2565b810160208510156200060e578190505b620006266200061d85620004b2565b830182620005b7565b50505b505050565b600082821c905092915050565b60006200064e600019846008026200062e565b1980831691505092915050565b60006200066983836200063b565b9150826002028217905092915050565b6200068482620003ff565b67ffffffffffffffff811115620006a0576200069f6200040a565b5b620006ac825462000468565b620006b9828285620005de565b600060209050601f831160018114620006f15760008415620006dc578287015190505b620006e885826200065b565b86555062000758565b601f19841662000701866200049d565b60005b828110156200072b5784890151825560018201915060208501945060208101905062000704565b868310156200074b578489015162000747601f8916826200063b565b8355505b6001600288020188555050505b505050505050565b6000819050919050565b620007758162000760565b82525050565b620007868162000525565b82525050565b600073ffffffffffffffffffffffffffffffffffffffff82169050919050565b6000620007b9826200078c565b9050919050565b620007cb81620007ac565b82525050565b600060a082019050620007e860008301886200076a565b620007f760208301876200076a565b6200080660408301866200076a565b6200081560608301856200077b565b620008246080830184620007c0565b9695505050505050565b600082825260208201905092915050565b60005b838110156200085f57808201518184015260208101905062000842565b60008484015250505050565b6000601f19601f8301169050919050565b60006200088982620003ff565b6200089581856200082e565b9350620008a78185602086016200083f565b620008b2816200086b565b840191505092915050565b60006040820190508181036000830152620008d981856200087c565b9050620008ea60208301846200077b565b9392505050565b600060208201905081810360008301526200090d81846200087c565b905092915050565b600081519050919050565b6000819050602082019050919050565b60006200093e825162000760565b80915050919050565b6000620009548262000915565b82620009608462000920565b90506200096d8162000930565b92506020821015620009b057620009ab7fffffffffffffffffffffffffffffffffffffffffffffffffffffffffffffffff83602003600802620004c2565b831692505b5050919050565b7f4e487b7100000000000000000000000000000000000000000000000000000000600052605160045260246000fd5b60805160a05160c05160e05161010051610120516101405161190962000a41600039600061050b015260006104d001526000610b5a01526000610b390152600061073a01526000610790015260006107b901526119096000f3fe608060405234801561001057600080fd5b50600436106100575760003560e01c80631c50eed51461005c57806384b0196e1461007a578063887c00361461009e578063d67bdd25146100ba578063dd26fe92146100d8575b600080fd5b610064610108565b6040516100719190610c9f565b60405180910390f35b610082610196565b6040516100959796959493929190610e2d565b60405180910390f35b6100b860048036038101906100b39190610f7a565b610240565b005b6100c2610397565b6040516100cf9190611011565b60405180910390f35b6100f260048036038101906100ed9190610f7a565b6103bd565b6040516100ff9190611047565b60405180910390f35b6002805461011590611091565b80601f016020809104026020016040519081016040528092919081815260200182805461014190611091565b801561018e5780601f106101635761010080835404028352916020019161018e565b820191906000526020600020905b81548152906001019060200180831161017157829003601f168201915b505050505081565b6000606080600080600060606101aa6104c7565b6101b2610502565b46306000801b600067ffffffffffffffff8111156101d3576101d26110c2565b5b6040519080825280602002602001820160405280156102015781602001602082028036833780820191505090505b507f0f00000000000000000000000000000000000000000000000000000000000000959493929190965096509650965096509650965090919293949596565b61024d85858585856103bd565b61028c576040517f08c379a00000000000000000000000000000000000000000000000000000000081526004016102839061113d565b60405180910390fd5b84602001354211156102d3576040517f08c379a00000000000000000000000000000000000000000000000000000000081526004016102ca906111a9565b60405180910390fd5b8480600001906102e391906111d8565b600291826102f29291906113f2565b5033600360006101000a81548173ffffffffffffffffffffffffffffffffffffffff021916908373ffffffffffffffffffffffffffffffffffffffff1602179055507ffe805c34be9e63a416b9aba99c6c62782dafb9620895945675bbbe5131aeb1a16002600360009054906101000a900473ffffffffffffffffffffffffffffffffffffffff16604051610388929190611546565b60405180910390a15050505050565b600360009054906101000a900473ffffffffffffffffffffffffffffffffffffffff1681565b6000806103da6103d5886103d09061171e565b61053d565b6105a0565b905060006103ea828787876105ba565b905061042b6040518060400160405280601581526020017f5265636f766572656420616464726573733a2025730000000000000000000000815250826105ea565b61046a6040518060400160405280601281526020017f53656e64657220616464726573733a2025730000000000000000000000000000815250886105ea565b8673ffffffffffffffffffffffffffffffffffffffff168173ffffffffffffffffffffffffffffffffffffffff16149250505095945050505050565b60006a636f6e736f6c652e6c6f679050600080835160208501845afa505050565b60606104fd60007f000000000000000000000000000000000000000000000000000000000000000061068690919063ffffffff16565b905090565b606061053860017f000000000000000000000000000000000000000000000000000000000000000061068690919063ffffffff16565b905090565b60007fff68792d44a8d6b8489c8bf05a98afb27ffcee59ff7fe51e62e896e3ab56e7ee826000015180519060200120836020015160405160200161058393929190611731565b604051602081830303815290604052805190602001209050919050565b60006105b36105ad610736565b836107ed565b9050919050565b6000806000806105cc8888888861082e565b9250925092506105dc8282610922565b829350505050949350505050565b6106828282604051602401610600929190611768565b6040516020818303038152906040527f319af333000000000000000000000000000000000000000000000000000000007bffffffffffffffffffffffffffffffffffffffffffffffffffffffff19166020820180517bffffffffffffffffffffffffffffffffffffffffffffffffffffffff8381831617835250505050610a86565b5050565b606060ff60001b83146106a35761069c83610aa0565b9050610730565b8180546106af90611091565b80601f01602080910402602001604051908101604052809291908181526020018280546106db90611091565b80156107285780601f106106fd57610100808354040283529160200191610728565b820191906000526020600020905b81548152906001019060200180831161070b57829003601f168201915b505050505090505b92915050565b60007f000000000000000000000000000000000000000000000000000000000000000073ffffffffffffffffffffffffffffffffffffffff163073ffffffffffffffffffffffffffffffffffffffff161480156107b257507f000000000000000000000000000000000000000000000000000000000000000046145b156107df577f000000000000000000000000000000000000000000000000000000000000000090506107ea565b6107e7610b14565b90505b90565b60006040517f190100000000000000000000000000000000000000000000000000000000000081528360028201528260228201526042812091505092915050565b60008060007f7fffffffffffffffffffffffffffffff5d576e7357a4501ddfe92f46681b20a08460001c111561086e576000600385925092509250610918565b60006001888888886040516000815260200160405260405161089394939291906117a7565b6020604051602081039080840390855afa1580156108b5573d6000803e3d6000fd5b505050602060405103519050600073ffffffffffffffffffffffffffffffffffffffff168173ffffffffffffffffffffffffffffffffffffffff160361090957600060016000801b93509350935050610918565b8060008060001b935093509350505b9450945094915050565b60006003811115610936576109356117ec565b5b826003811115610949576109486117ec565b5b0315610a825760016003811115610963576109626117ec565b5b826003811115610976576109756117ec565b5b036109ad576040517ff645eedf00000000000000000000000000000000000000000000000000000000815260040160405180910390fd5b600260038111156109c1576109c06117ec565b5b8260038111156109d4576109d36117ec565b5b03610a19578060001c6040517ffce698f7000000000000000000000000000000000000000000000000000000008152600401610a10919061181b565b60405180910390fd5b600380811115610a2c57610a2b6117ec565b5b826003811115610a3f57610a3e6117ec565b5b03610a8157806040517fd78bce0c000000000000000000000000000000000000000000000000000000008152600401610a789190611836565b60405180910390fd5b5b5050565b610a9d81610a956104a6610baa565b63ffffffff16565b50565b60606000610aad83610bb5565b90506000602067ffffffffffffffff811115610acc57610acb6110c2565b5b6040519080825280601f01601f191660200182016040528015610afe5781602001600182028036833780820191505090505b5090508181528360208201528092505050919050565b60007f8b73c3c69bb8fe3d512ecc4cf759cc79239f7b179b0ffacaa9a75d522b39400f7f00000000000000000000000000000000000000000000000000000000000000007f00000000000000000000000000000000000000000000000000000000000000004630604051602001610b8f959493929190611851565b60405160208183030381529060405280519060200120905090565b610c05819050919050565b60008060ff8360001c169050601f811115610bfc576040517fb3512b0c00000000000000000000000000000000000000000000000000000000815260040160405180910390fd5b80915050919050565b610c0d6118a4565b565b600081519050919050565b600082825260208201905092915050565b60005b83811015610c49578082015181840152602081019050610c2e565b60008484015250505050565b6000601f19601f8301169050919050565b6000610c7182610c0f565b610c7b8185610c1a565b9350610c8b818560208601610c2b565b610c9481610c55565b840191505092915050565b60006020820190508181036000830152610cb98184610c66565b905092915050565b60007fff0000000000000000000000000000000000000000000000000000000000000082169050919050565b610cf681610cc1565b82525050565b6000819050919050565b610d0f81610cfc565b82525050565b600073ffffffffffffffffffffffffffffffffffffffff82169050919050565b6000610d4082610d15565b9050919050565b610d5081610d35565b82525050565b6000819050919050565b610d6981610d56565b82525050565b600081519050919050565b600082825260208201905092915050565b6000819050602082019050919050565b610da481610cfc565b82525050565b6000610db68383610d9b565b60208301905092915050565b6000602082019050919050565b6000610dda82610d6f565b610de48185610d7a565b9350610def83610d8b565b8060005b83811015610e20578151610e078882610daa565b9750610e1283610dc2565b925050600181019050610df3565b5085935050505092915050565b600060e082019050610e42600083018a610ced565b8181036020830152610e548189610c66565b90508181036040830152610e688188610c66565b9050610e776060830187610d06565b610e846080830186610d47565b610e9160a0830185610d60565b81810360c0830152610ea38184610dcf565b905098975050505050505050565b6000604051905090565b600080fd5b600080fd5b600080fd5b600060408284031215610ee057610edf610ec5565b5b81905092915050565b610ef281610d35565b8114610efd57600080fd5b50565b600081359050610f0f81610ee9565b92915050565b600060ff82169050919050565b610f2b81610f15565b8114610f3657600080fd5b50565b600081359050610f4881610f22565b92915050565b610f5781610d56565b8114610f6257600080fd5b50565b600081359050610f7481610f4e565b92915050565b600080600080600060a08688031215610f9657610f95610ebb565b5b600086013567ffffffffffffffff811115610fb457610fb3610ec0565b5b610fc088828901610eca565b9550506020610fd188828901610f00565b9450506040610fe288828901610f39565b9350506060610ff388828901610f65565b925050608061100488828901610f65565b9150509295509295909350565b60006020820190506110266000830184610d47565b92915050565b60008115159050919050565b6110418161102c565b82525050565b600060208201905061105c6000830184611038565b92915050565b7f4e487b7100000000000000000000000000000000000000000000000000000000600052602260045260246000fd5b600060028204905060018216806110a957607f821691505b6020821081036110bc576110bb611062565b5b50919050565b7f4e487b7100000000000000000000000000000000000000000000000000000000600052604160045260246000fd5b7f494e56414c4944205349474e4154555245000000000000000000000000000000600082015250565b6000611127601183610c1a565b9150611132826110f1565b602082019050919050565b600060208201905081810360008301526111568161111a565b9050919050565b7f444541444c494e4520484153204245454e205245414348454400000000000000600082015250565b6000611193601983610c1a565b915061119e8261115d565b602082019050919050565b600060208201905081810360008301526111c281611186565b9050919050565b600080fd5b600080fd5b600080fd5b600080833560016020038436030381126111f5576111f46111c9565b5b80840192508235915067ffffffffffffffff821115611217576112166111ce565b5b602083019250600182023603831315611233576112326111d3565b5b509250929050565b600082905092915050565b60008190508160005260206000209050919050565b60006020601f8301049050919050565b600082821b905092915050565b6000600883026112a87fffffffffffffffffffffffffffffffffffffffffffffffffffffffffffffffff8261126b565b6112b2868361126b565b95508019841693508086168417925050509392505050565b6000819050919050565b60006112ef6112ea6112e584610cfc565b6112ca565b610cfc565b9050919050565b6000819050919050565b611309836112d4565b61131d611315826112f6565b848454611278565b825550505050565b600090565b611332611325565b61133d818484611300565b505050565b5b818110156113615761135660008261132a565b600181019050611343565b5050565b601f8211156113a65761137781611246565b6113808461125b565b8101602085101561138f578190505b6113a361139b8561125b565b830182611342565b50505b505050565b600082821c905092915050565b60006113c9600019846008026113ab565b1980831691505092915050565b60006113e283836113b8565b9150826002028217905092915050565b6113fc838361123b565b67ffffffffffffffff811115611415576114146110c2565b5b61141f8254611091565b61142a828285611365565b6000601f8311600181146114595760008415611447578287013590505b61145185826113d6565b8655506114b9565b601f19841661146786611246565b60005b8281101561148f5784890135825560018201915060208501945060208101905061146a565b868310156114ac57848901356114a8601f8916826113b8565b8355505b6001600288020188555050505b50505050505050565b600081546114cf81611091565b6114d98186610c1a565b945060018216600081146114f4576001811461150a5761153d565b60ff19831686528115156020028601935061153d565b61151385611246565b60005b8381101561153557815481890152600182019150602081019050611516565b808801955050505b50505092915050565b6000604082019050818103600083015261156081856114c2565b905061156f6020830184610d47565b9392505050565b600080fd5b61158482610c55565b810181811067ffffffffffffffff821117156115a3576115a26110c2565b5b80604052505050565b60006115b6610eb1565b90506115c2828261157b565b919050565b600080fd5b600080fd5b600080fd5b600067ffffffffffffffff8211156115f1576115f06110c2565b5b6115fa82610c55565b9050602081019050919050565b82818337600083830152505050565b6000611629611624846115d6565b6115ac565b905082815260208101848484011115611645576116446115d1565b5b611650848285611607565b509392505050565b600082601f83011261166d5761166c6115cc565b5b813561167d848260208601611616565b91505092915050565b61168f81610cfc565b811461169a57600080fd5b50565b6000813590506116ac81611686565b92915050565b6000604082840312156116c8576116c7611576565b5b6116d260406115ac565b9050600082013567ffffffffffffffff8111156116f2576116f16115c7565b5b6116fe84828501611658565b60008301525060206117128482850161169d565b60208301525092915050565b600061172a36836116b2565b9050919050565b60006060820190506117466000830186610d60565b6117536020830185610d60565b6117606040830184610d06565b949350505050565b600060408201905081810360008301526117828185610c66565b90506117916020830184610d47565b9392505050565b6117a181610f15565b82525050565b60006080820190506117bc6000830187610d60565b6117c96020830186611798565b6117d66040830185610d60565b6117e36060830184610d60565b95945050505050565b7f4e487b7100000000000000000000000000000000000000000000000000000000600052602160045260246000fd5b60006020820190506118306000830184610d06565b92915050565b600060208201905061184b6000830184610d60565b92915050565b600060a0820190506118666000830188610d60565b6118736020830187610d60565b6118806040830186610d60565b61188d6060830185610d06565b61189a6080830184610d47565b9695505050505050565b7f4e487b7100000000000000000000000000000000000000000000000000000000600052605160045260246000fdfea2646970667358221220d3da9b06f4e6a5d91d6a05fa7e6ed2dd5850a1afabf4546f83e09aa9513d7f4f64736f6c63430008180033",
  "linkReferences": {},
  "deployedLinkReferences": {}
}