{
  "_format": "hh-sol-artifact-1",
  "contractName": "Messager",
  "sourceName": "contracts/Messager.sol",
  "abi": [
    {
      "inputs": [],
      "stateMutability": "nonpayable",
      "type": "constructor"
    },
    {
      "anonymous": false,
      "inputs": [
        {
          "indexed": false,
          "internalType": "string",
          "name": "text",
          "type": "string"
        },
        {
          "indexed": false,
          "internalType": "address",
          "name": "sender",
          "type": "address"
        }
      ],
      "name": "MessageChanged",
      "type": "event"
    },
    {
      "inputs": [
        {
          "components": [
            {
              "internalType": "string",
              "name": "text",
              "type": "string"
            },
            {
              "internalType": "uint256",
              "name": "deadline",
              "type": "uint256"
            }
          ],
          "internalType": "struct Messager.MessageStruct",
          "name": "messageStruct",
          "type": "tuple"
        },
        {
          "internalType": "address",
          "name": "sender",
          "type": "address"
        },
        {
          "internalType": "uint8",
          "name": "v",
          "type": "uint8"
        },
        {
          "internalType": "bytes32",
          "name": "r",
          "type": "bytes32"
        },
        {
          "internalType": "bytes32",
          "name": "s",
          "type": "bytes32"
        }
      ],
      "name": "message",
      "outputs": [],
      "stateMutability": "nonpayable",
      "type": "function"
    },
    {
      "inputs": [],
      "name": "messageSender",
      "outputs": [
        {
          "internalType": "address",
          "name": "",
          "type": "address"
        }
      ],
      "stateMutability": "view",
      "type": "function"
    },
    {
      "inputs": [],
      "name": "textMessage",
      "outputs": [
        {
          "internalType": "string",
          "name": "",
          "type": "string"
        }
      ],
      "stateMutability": "view",
      "type": "function"
    },
    {
      "inputs": [
        {
          "components": [
            {
              "internalType": "string",
              "name": "text",
              "type": "string"
            },
            {
              "internalType": "uint256",
              "name": "deadline",
              "type": "uint256"
            }
          ],
          "internalType": "struct Messager.MessageStruct",
          "name": "messageStruct",
          "type": "tuple"
        },
        {
          "internalType": "address",
          "name": "sender",
          "type": "address"
        },
        {
          "internalType": "uint8",
          "name": "v",
          "type": "uint8"
        },
        {
          "internalType": "bytes32",
          "name": "r",
          "type": "bytes32"
        },
        {
          "internalType": "bytes32",
          "name": "s",
          "type": "bytes32"
        }
      ],
      "name": "verifyMessage",
      "outputs": [
        {
          "internalType": "bool",
          "name": "",
          "type": "bool"
        }
      ],
      "stateMutability": "view",
      "type": "function"
    }
  ],
  "bytecode": "0x60e06040526040518060400160405280600c81526020017f48656c6c6f20576f726c64210000000000000000000000000000000000000000815250600090816200004a91906200047c565b5033600160006101000a81548173ffffffffffffffffffffffffffffffffffffffff021916908373ffffffffffffffffffffffffffffffffffffffff1602179055503480156200009957600080fd5b507fff68792d44a8d6b8489c8bf05a98afb27ffcee59ff7fe51e62e896e3ab56e7ee60a081815250507f8b73c3c69bb8fe3d512ecc4cf759cc79239f7b179b0ffacaa9a75d522b39400f60c081815250506200019b60405180608001604052806040518060400160405280600881526020017f4d6573736167657200000000000000000000000000000000000000000000000081525081526020016040518060400160405280600181526020017f310000000000000000000000000000000000000000000000000000000000000081525081526020014681526020013073ffffffffffffffffffffffffffffffffffffffff16815250620001a860201b60201c565b6080818152505062000631565b600060c05182600001518051906020012083602001518051906020012084604001518560600151604051602001620001e5959493929190620005d4565b604051602081830303815290604052805190602001209050919050565b600081519050919050565b7f4e487b7100000000000000000000000000000000000000000000000000000000600052604160045260246000fd5b7f4e487b7100000000000000000000000000000000000000000000000000000000600052602260045260246000fd5b600060028204905060018216806200028457607f821691505b6020821081036200029a57620002996200023c565b5b50919050565b60008190508160005260206000209050919050565b60006020601f8301049050919050565b600082821b905092915050565b600060088302620003047fffffffffffffffffffffffffffffffffffffffffffffffffffffffffffffffff82620002c5565b620003108683620002c5565b95508019841693508086168417925050509392505050565b6000819050919050565b6000819050919050565b60006200035d62000357620003518462000328565b62000332565b62000328565b9050919050565b6000819050919050565b62000379836200033c565b62000391620003888262000364565b848454620002d2565b825550505050565b600090565b620003a862000399565b620003b58184846200036e565b505050565b5b81811015620003dd57620003d16000826200039e565b600181019050620003bb565b5050565b601f8211156200042c57620003f681620002a0565b6200040184620002b5565b8101602085101562000411578190505b620004296200042085620002b5565b830182620003ba565b50505b505050565b600082821c905092915050565b6000620004516000198460080262000431565b1980831691505092915050565b60006200046c83836200043e565b9150826002028217905092915050565b620004878262000202565b67ffffffffffffffff811115620004a357620004a26200020d565b5b620004af82546200026b565b620004bc828285620003e1565b600060209050601f831160018114620004f45760008415620004df578287015190505b620004eb85826200045e565b8655506200055b565b601f1984166200050486620002a0565b60005b828110156200052e5784890151825560018201915060208501945060208101905062000507565b868310156200054e57848901516200054a601f8916826200043e565b8355505b6001600288020188555050505b505050505050565b6000819050919050565b620005788162000563565b82525050565b620005898162000328565b82525050565b600073ffffffffffffffffffffffffffffffffffffffff82169050919050565b6000620005bc826200058f565b9050919050565b620005ce81620005af565b82525050565b600060a082019050620005eb60008301886200056d565b620005fa60208301876200056d565b6200060960408301866200056d565b6200061860608301856200057e565b620006276080830184620005c3565b9695505050505050565b60805160a05160c05161104c6200065e60003960005050600061043f015260006102dd015261104c6000f3fe608060405234801561001057600080fd5b506004361061004c5760003560e01c80631c50eed514610051578063887c00361461006f578063d67bdd251461008b578063dd26fe92146100a9575b600080fd5b6100596100d9565b604051610066919061061a565b60405180910390f35b610089600480360381019061008491906108fe565b610167565b005b6100936102b2565b6040516100a091906109a4565b60405180910390f35b6100c360048036038101906100be91906108fe565b6102d8565b6040516100d091906109da565b60405180910390f35b600080546100e690610a24565b80601f016020809104026020016040519081016040528092919081815260200182805461011290610a24565b801561015f5780601f106101345761010080835404028352916020019161015f565b820191906000526020600020905b81548152906001019060200180831161014257829003601f168201915b505050505081565b61017485858585856102d8565b6101b3576040517f08c379a00000000000000000000000000000000000000000000000000000000081526004016101aa90610aa1565b60405180910390fd5b84602001514211156101fa576040517f08c379a00000000000000000000000000000000000000000000000000000000081526004016101f190610b0d565b60405180910390fd5b84600001516000908161020d9190610cd9565b5083600160006101000a81548173ffffffffffffffffffffffffffffffffffffffff021916908373ffffffffffffffffffffffffffffffffffffffff1602179055507ffe805c34be9e63a416b9aba99c6c62782dafb9620895945675bbbe5131aeb1a16000600160009054906101000a900473ffffffffffffffffffffffffffffffffffffffff166040516102a3929190610e2f565b60405180910390a15050505050565b600160009054906101000a900473ffffffffffffffffffffffffffffffffffffffff1681565b6000807f00000000000000000000000000000000000000000000000000000000000000006103058861043b565b604051602001610316929190610ed7565b6040516020818303038152906040528051906020012090506000600182878787604051600081526020016040526040516103539493929190610f2c565b6020604051602081039080840390855afa158015610375573d6000803e3d6000fd5b5050506020604051035190506103c06040518060400160405280601581526020017f5265636f766572656420616464726573733a20257300000000000000000000008152508261049e565b6103ff6040518060400160405280601281526020017f53656e64657220616464726573733a20257300000000000000000000000000008152508861049e565b8673ffffffffffffffffffffffffffffffffffffffff168173ffffffffffffffffffffffffffffffffffffffff16149250505095945050505050565b60007f0000000000000000000000000000000000000000000000000000000000000000826000015180519060200120836020015160405160200161048193929190610f80565b604051602081830303815290604052805190602001209050919050565b61053682826040516024016104b4929190610fb7565b6040516020818303038152906040527f319af333000000000000000000000000000000000000000000000000000000007bffffffffffffffffffffffffffffffffffffffffffffffffffffffff19166020820180517bffffffffffffffffffffffffffffffffffffffffffffffffffffffff838183161783525050505061053a565b5050565b61055181610549610554610575565b63ffffffff16565b50565b60006a636f6e736f6c652e6c6f679050600080835160208501845afa505050565b610580819050919050565b610588610fe7565b565b600081519050919050565b600082825260208201905092915050565b60005b838110156105c45780820151818401526020810190506105a9565b60008484015250505050565b6000601f19601f8301169050919050565b60006105ec8261058a565b6105f68185610595565b93506106068185602086016105a6565b61060f816105d0565b840191505092915050565b6000602082019050818103600083015261063481846105e1565b905092915050565b6000604051905090565b600080fd5b600080fd5b600080fd5b7f4e487b7100000000000000000000000000000000000000000000000000000000600052604160045260246000fd5b61068d826105d0565b810181811067ffffffffffffffff821117156106ac576106ab610655565b5b80604052505050565b60006106bf61063c565b90506106cb8282610684565b919050565b600080fd5b600080fd5b600080fd5b600067ffffffffffffffff8211156106fa576106f9610655565b5b610703826105d0565b9050602081019050919050565b82818337600083830152505050565b600061073261072d846106df565b6106b5565b90508281526020810184848401111561074e5761074d6106da565b5b610759848285610710565b509392505050565b600082601f830112610776576107756106d5565b5b813561078684826020860161071f565b91505092915050565b6000819050919050565b6107a28161078f565b81146107ad57600080fd5b50565b6000813590506107bf81610799565b92915050565b6000604082840312156107db576107da610650565b5b6107e560406106b5565b9050600082013567ffffffffffffffff811115610805576108046106d0565b5b61081184828501610761565b6000830152506020610825848285016107b0565b60208301525092915050565b600073ffffffffffffffffffffffffffffffffffffffff82169050919050565b600061085c82610831565b9050919050565b61086c81610851565b811461087757600080fd5b50565b60008135905061088981610863565b92915050565b600060ff82169050919050565b6108a58161088f565b81146108b057600080fd5b50565b6000813590506108c28161089c565b92915050565b6000819050919050565b6108db816108c8565b81146108e657600080fd5b50565b6000813590506108f8816108d2565b92915050565b600080600080600060a0868803121561091a57610919610646565b5b600086013567ffffffffffffffff8111156109385761093761064b565b5b610944888289016107c5565b95505060206109558882890161087a565b9450506040610966888289016108b3565b9350506060610977888289016108e9565b9250506080610988888289016108e9565b9150509295509295909350565b61099e81610851565b82525050565b60006020820190506109b96000830184610995565b92915050565b60008115159050919050565b6109d4816109bf565b82525050565b60006020820190506109ef60008301846109cb565b92915050565b7f4e487b7100000000000000000000000000000000000000000000000000000000600052602260045260246000fd5b60006002820490506001821680610a3c57607f821691505b602082108103610a4f57610a4e6109f5565b5b50919050565b7f5349474e415455524520444f4553204e4f54204d415443480000000000000000600082015250565b6000610a8b601883610595565b9150610a9682610a55565b602082019050919050565b60006020820190508181036000830152610aba81610a7e565b9050919050565b7f444541444c494e4520484153204245454e205245414348454400000000000000600082015250565b6000610af7601983610595565b9150610b0282610ac1565b602082019050919050565b60006020820190508181036000830152610b2681610aea565b9050919050565b60008190508160005260206000209050919050565b60006020601f8301049050919050565b600082821b905092915050565b600060088302610b8f7fffffffffffffffffffffffffffffffffffffffffffffffffffffffffffffffff82610b52565b610b998683610b52565b95508019841693508086168417925050509392505050565b6000819050919050565b6000610bd6610bd1610bcc8461078f565b610bb1565b61078f565b9050919050565b6000819050919050565b610bf083610bbb565b610c04610bfc82610bdd565b848454610b5f565b825550505050565b600090565b610c19610c0c565b610c24818484610be7565b505050565b5b81811015610c4857610c3d600082610c11565b600181019050610c2a565b5050565b601f821115610c8d57610c5e81610b2d565b610c6784610b42565b81016020851015610c76578190505b610c8a610c8285610b42565b830182610c29565b50505b505050565b600082821c905092915050565b6000610cb060001984600802610c92565b1980831691505092915050565b6000610cc98383610c9f565b9150826002028217905092915050565b610ce28261058a565b67ffffffffffffffff811115610cfb57610cfa610655565b5b610d058254610a24565b610d10828285610c4c565b600060209050601f831160018114610d435760008415610d31578287015190505b610d3b8582610cbd565b865550610da3565b601f198416610d5186610b2d565b60005b82811015610d7957848901518255600182019150602085019450602081019050610d54565b86831015610d965784890151610d92601f891682610c9f565b8355505b6001600288020188555050505b505050505050565b60008154610db881610a24565b610dc28186610595565b94506001821660008114610ddd5760018114610df357610e26565b60ff198316865281151560200286019350610e26565b610dfc85610b2d565b60005b83811015610e1e57815481890152600182019150602081019050610dff565b808801955050505b50505092915050565b60006040820190508181036000830152610e498185610dab565b9050610e586020830184610995565b9392505050565b600081905092915050565b7f1901000000000000000000000000000000000000000000000000000000000000600082015250565b6000610ea0600283610e5f565b9150610eab82610e6a565b600282019050919050565b6000819050919050565b610ed1610ecc826108c8565b610eb6565b82525050565b6000610ee282610e93565b9150610eee8285610ec0565b602082019150610efe8284610ec0565b6020820191508190509392505050565b610f17816108c8565b82525050565b610f268161088f565b82525050565b6000608082019050610f416000830187610f0e565b610f4e6020830186610f1d565b610f5b6040830185610f0e565b610f686060830184610f0e565b95945050505050565b610f7a8161078f565b82525050565b6000606082019050610f956000830186610f0e565b610fa26020830185610f0e565b610faf6040830184610f71565b949350505050565b60006040820190508181036000830152610fd181856105e1565b9050610fe06020830184610995565b9392505050565b7f4e487b7100000000000000000000000000000000000000000000000000000000600052605160045260246000fdfea264697066735822122037c225cd1c38960e1eb38ec81d21d905beb87d936305b744a5df1ac71b2883b664736f6c63430008180033",
  "linkReferences": {},
  "deployedLinkReferences": {}
}